:020000040800F2
:1000000070090020310500088D0500088D050008E5
:100010008D0500088D0500088D0500080000000012
:100020000000000000000000000000008D05000836
:100030008D050008000000008D050008ED0D00088A
:100040008D0500088D0500088D0500088D05000848
:100050008D0500088D0500088D0500088D05000838
:100060008D0500088D0500088D0500088D05000828
:100070008D0500088D0500088D0500088D05000818
:100080008D0500088D0500088D0500088D05000808
:100090008D0500088D0500088D0500088D050008F8
:1000A0008D0500088D0500088D0500088D050008E8
:1000B0008D0500088D0500088D0500088D050008D8
:1000C0008D0500088D0500088D0500088D050008C8
:1000D0008D0500088D050008F50A00088D0500084B
:1000E0008D0500088D0500088D0500088D050008A8
:1000F0008D0500088D0500088D0500088D05000898
:100100008D0500088D0500088D0500088D05000887
:100110008D0500088D0500088D0500088D05000877
:100120008D0500088D0500088D0500088D05000867
:100130008D0500088D0500088D0500088D05000857
:100140008D0500088D0500088D0500088D05000847
:100150008D0500088D0500088D0500088D05000837
:100160008D0500088D0500088D0500088D05000827
:100170008D0500088D0500088D0500088D05000817
:100180008D0500088D05000880B58AB000AF786045
:10019000396000237B6200233B620023FB61002364
:1001A000BB617B681B8A9BB27B627B6A23F44053F2
:1001B0007B623B68DB887A6A13437B627B6A9AB214
:1001C0007B681A827B689B899BB27B627B6A23F483
:1001D000B05323F00C037B623B689A883B681B8911
:1001E00013439AB23B685B8913439BB27A6A134309
:1001F0007B627B6A9AB27B689A817B689B8A9BB29E
:100200007B627B6A23F440737B623B689B897A6ADA
:1002100013437B627B6A9AB27B689A8207F1080378
:10022000184601F077FB7A68314B9A4203D07A681E
:10023000304B9A4202D17B693B6201E03B693B62F1
:100240007B689B899BB29BB21BB2002B0CDA3A6A8B
:1002500013469B0013449A001A443B681B685B00DA
:10026000B2FBF3F3FB610BE03A6A13469B001344C5
:100270009A001A443B681B689B00B2FBF3F3FB61D6
:10028000FA691D4BA3FB02135B091B017B627B6AAE
:100290001B09642202FB03F3FA69D31ABB617B6872
:1002A0009B899BB29BB21BB2002B0DDABB69DB00B2
:1002B00003F13202104BA3FB02135B0903F00703A7
:1002C0007A6A13437B620CE0BB691B0103F13202C3
:1002D000094BA3FB02135B0903F00F037A6A134374
:1002E0007B627B6A9AB27B681A812837BD4680BDE3
:1002F00000100140001401401F85EB5180B483B011
:1003000000AF78600B46FB70FB78002B08D07B6851
:100310009B899BB243F400539AB27B689A8107E0B1
:100320007B689B899BB223F400539AB27B689A81C5
:100330000C37BD465DF8047B704700BF80B483B0C6
:1003400000AF78600B467B807B88C3F308039AB2CA
:100350007B689A800C37BD465DF8047B704700BF10
:1003600080B483B000AF78607B689B889BB2C3F396
:1003700008039BB218460C37BD465DF8047B7047F6
:1003800080B487B000AF786013460A467A807B70ED
:1003900000233B610023FB600023BB6000237B61E3
:1003A0007B687B617B88DBB25B09DBB23B617B886E
:1003B00003F01F03FB60FB68012202FA03F3BB603A
:1003C0003B69012B03D17B690C337B6109E03B69FD
:1003D000022B03D17B6910337B6102E07B6914330C
:1003E0007B617B78002B06D07B697A691168BA68DB
:1003F0000A431A6006E07B697A691168BA68D243D9
:100400000A401A601C37BD465DF8047B704700BF88
:1004100080B485B000AF78600B467B800023FB730F
:100420007B681B889AB27B8813409BB2002B02D05A
:100430000123FB7301E00023FB73FB7B1846143799
:10044000BD465DF8047B704780B487B000AF78602C
:100450000B467B800023FB6000237B610023BB6095
:100460000023FB747B88DBB25B09DBB2BB607B885B
:1004700003F01F037B617B69012202FA03F37B61B6
:10048000BB68012B06D17B689B899BB27A691340BC
:100490007B610FE0BB68022B06D17B681B8A9BB295
:1004A0007A6913407B6105E07B689B8A9BB27A691D
:1004B00013407B617B881B0A9BB2FB60FB680122B7
:1004C00002FA03F3FB607B681B889BB2FA68134057
:1004D000FB607B69002B05D0FB68002B02D0012359
:1004E000FB7401E00023FB74FB7C18461C37BD46FF
:1004F0005DF8047B704700BF80B485B000AF7860C2
:100500000B467B800023FB810023BB817B881B0A79
:10051000FB81FB89012202FA03F3BB81BB89DB4328
:100520009AB27B681A801437BD465DF8047B704729
:1005300080B582B000AF104B7B60104B3B6007E092
:100540003B681A1D3A607A68111D796012681A605A
:100550003A680B4B9A42F3D30A480B494FF000021A
:100560008842B8BF40F8042BFFF6FAAF00F076F8E7
:100570000837BD4680BD00BF2828000800000020C5
:1005800028000020280000206C01002080B400AF6B
:10059000FEE700BF80B483B000AF0346FB71084B99
:1005A00097F907205209F97901F01F01012000FA9B
:1005B00001F143F822100C37BD465DF8047B70470B
:1005C00000E100E080B483B000AF03463960FB7106
:1005D00097F90730002B0BDA0D49FB7903F00F0375
:1005E000043B3A68D2B21201D2B20B441A7609E047
:1005F000084997F907303A68D2B21201D2B20B44D7
:1006000083F800230C37BD465DF8047B704700BFBC
:1006100000ED00E000E100E080B582B000AF78605E
:100620007B68B3F1807F01D3012311E00A4B7A6824
:1006300022F07F42013A5A604FF0FF300F21FFF75E
:10064000C1FF054B00229A60034B07221A6000236A
:1006500018460837BD4680BD10E000E080B58AB07E
:1006600000AF01F065FBC34B1A68C34BA3FB021339
:100670009B091846FFF7D0FF0120012101F030FA55
:100680000220012101F02CFA1120012101F0ECF9E6
:100690000420012101F0E8F90220012101F0E4F930
:1006A0004FF4A0633B62022387F82430032387F8CA
:1006B0002530002387F82630022387F8273007F1FA
:1006C0002003AE48194601F029FA4FF400633B625B
:1006D000022387F82430032387F82530002387F886
:1006E0002630022387F8273007F12003A448194653
:1006F00001F014FAA1480821012201F0D3FAA04820
:100700000B21012201F0CEFA9C480A21012201F0BE
:10071000C9FA4FF4E0733B62022387F824300323C5
:1007200087F82530002387F82630022387F8273002
:1007300007F120039348194601F0F0F9914806218A
:10074000032201F0AFFA8F480721032201F0AAFA31
:100750008C480821032201F0A5FA864B1B685A0A2F
:10076000894BA3FB0213DB099BB2013B9AB2874B77
:100770001A80874B4FF4FA625A60844B1A88844B74
:100780001A80834B00221A81814B00225A808148B3
:100790007F4901F073FB804B60221A807E4B01225F
:1007A0005A807D4B4FF4BE729A607B4B00229A8137
:1007B0007848794901F00CFC7648082101F0BAFD2F
:1007C000754B01225A80744B4FF4BE729A60714887
:1007D000714901F077FC6F48082101F0C7FD6E4BAD
:1007E00001225A806C4B4FF4BE729A6069486A4984
:1007F00001F0F0FC6748082101F0D6FD65480121B1
:1008000001F0A6FB624B4FF4FA625A605F4B1A8804
:100810005F4B1A805E4B00221A815D4B00225A808A
:100820005E485B4901F02AFB5B4B60221A805A4B01
:1008300001225A80584B4FF4BE729A60564B0022E8
:100840009A815648544901F0C3FB5448082101F0ED
:1008500071FD514B01225A804F4B4FF4BE729A608A
:100860004E484D4901F02EFC4C48082101F07EFD18
:10087000494B01225A80484B4FF4BE729A60474858
:10088000454901F0A7FC4548082101F08DFD43488A
:10089000012101F05DFB3F48012101F0CBFD3D4806
:1008A000012101F075FB3B480021002201F098FD79
:1008B00038480421002201F093FD36480821002227
:1008C00001F08EFD3548012101F0B4FD33480121CE
:1008D00001F05EFB31480021002201F081FD2F482C
:1008E0000421002201F07CFD2C480821002201F0A7
:1008F00077FD4FF460433B62012387F824300023E7
:1009000087F82630032387F82530022387F827301D
:1009100007F120032248194601F000F901200121C6
:1009200001F0A2F880233B62012387F824300023E2
:1009300087F82630032387F82530022387F82730ED
:1009400007F120030D48194601F0E8F802200121C3
:1009500001F08AF803233B62012387F82430002347
:1009600087F82630032387F82530022387F82730BD
:1009700018E000BF14000020D34D621000000240B8
:10098000001002400008024023B24C002800002062
:1009900044000020000001405400002000040140F9
:1009A0000004024007F120034A48194601F0B6F856
:1009B0000420012101F058F80723BB6100233B7795
:1009C0000023BB7703237B770123FB7707F1180311
:1009D0004148194601F0A2F80420012101F044F831
:1009E0003823BB6100233B770023BB7703237B774E
:1009F0000123FB7707F118033748194601F08EF8F9
:100A00000820012101F030F81C233B62002387F805
:100A10002430032387F82530012387F8273007F196
:100A200020032E48194601F079F80120012101F038
:100A30001BF80C233B6102233B750023BB7503238A
:100A40007B750123FB7507F110032548194601F05A
:100A500065F823480221072201F024F920480321E8
:100A6000072201F01FF94FF40030012101F01AF8BC
:100A70004FF4E1333B600023BB810C237B810023D7
:100A80003B810023FB800023BB803B461548194671
:100A9000FFF77AFB2620FFF77DFD124840F2255133
:100AA0000122FFF76DFC0F480121FFF727FC0E48DC
:100AB00000F076F90D4B1B78002B03D000F06AFB99
:100AC00000F036FD0A4B1B78012B02D100F0D2F961
:100AD000F0E7EFE70004024000080240000C02408B
:100AE000000002400044004050270008340000206D
:100AF0004100002098B500AF8F4840F22551FFF724
:100B0000A3FC0346012B40F016818B4840F225518F
:100B1000FFF7F2FC894B1B781C468748FFF720FC47
:100B20000346DAB2864B1A55844B1B78844AD25C52
:100B3000844B1A70814B1B780133DAB27F4B1A70E9
:100B4000804B1B780D2B40F0F6807D487E4901F0EC
:100B5000E1FC0346002B0FD17C4800F021F97848D6
:100B600000214FF4807201F08BFC744B00221A704C
:100B7000774B01221A70DEE07148764901F0CAFC19
:100B80000346002B14D1744B00221A7000F0AEFE05
:100B9000724800F005F96A4800214FF4807201F0B4
:100BA0006FFC664B00221A70694B00221A70C2E07B
:100BB00063486B4901F0AEFC0346002B21D1694824
:100BC00000F0EEF868484FF4487101F089FB664880
:100BD0004FF4487101F092FB63484FF4487101F003
:100BE0009BFB624B08221A70614B08221A70544812
:100BF00000214FF4807201F043FC504B00221A7028
:100C000099E04F485B4901F085FC0346002B26D153
:100C1000514B1B78002B15D0574800F0C1F85248B3
:100C20004FF4C87101F05CFB4F484FF4C87101F0FC
:100C300065FB4D484FF4C87101F06EFB4B4B0F2222
:100C40001A7002E04D4800F0ABF83D4800214FF427
:100C5000807201F015FC394B00221A706BE03848A5
:100C6000474901F057FC0346002B1BD13E484FF487
:100C7000FA6101F035FB3C484FF4FA6101F03EFBAC
:100C800039484FF4FA6101F047FB384B03221A70E0
:100C90002B4800214FF4807201F0F2FB274B002219
:100CA0001A7048E02648374901F034FC0346002B0F
:100CB00018D135484FF4FA6101F012FB32484FF475
:100CC000FA6101F01BFB30484FF4FA6101F024FB9C
:100CD0001B4800214FF4807201F0D2FB174B002219
:100CE0001A7028E01648294901F014FC0346002B2D
:100CF0000FD1274800F054F8264B01221A701048F3
:100D000000214FF4807201F0BBFB0C4B00221A70E3
:100D100011E0214800F044F8094800F041F81F486C
:100D200000F03EF8064800214FF4807201F0A8FB65
:100D3000024B00221A7098BD004400403100002090
:100D40006C00002032000020642700086C27000897
:100D5000410000207C270008330000208427000881
:100D600094270008A027000800040140000000208C
:100D700001000020AC270008B8270008C42700089D
:100D8000D8270008E427000800080040F0270008E2
:100D9000F827000834000020002800080C2800086C
:100DA00080B584B000AF78600023FB8112E000BF03
:100DB0000D484021FFF72CFB0346002BF8D0FB89A0
:100DC0007A6813441B7808481946FFF7B7FAFB897D
:100DD0000133FB81FB897A6813441B78002BE6D131
:100DE0001037BD4680BD00BF0044004080B500AF55
:100DF0001A4B1B88002B05D0184B1B88013B9AB25D
:100E0000164B1A80164B1B88002B05D0144B1B88E1
:100E1000013B9AB2124B1A80124B1B88002B05D053
:100E2000104B1B88013B9AB20E4B1A800E4B1B785D
:100E3000F92B06D80C4B1B780133DAB20A4B1A7027
:100E40000BE0094B00221A70084B1B780848194622
:100E5000FFF774FA054B00221A7080BD2A000020AB
:100E60002C0000202E000020300000204000002038
:100E70000044004080B500AF9C4B1B78012B40F034
:100E80007E819B48042100F0D7FE03461A46994B09
:100E90001A709748082100F0CFFE03461A46964B79
:100EA0001A709348102100F0C7FE03461A46934B70
:100EB0001A708F48042100F0BFFE0346002B31D189
:100EC0008B48082100F0B8FE0346002B2AD1884841
:100ED000102100F0B1FE0346012B23D1884B1B7873
:100EE000012B1ED087480021002201F079FA8548A5
:100EF0000821002201F074FA82480421012201F045
:100F00006FFA8148802100F0BFFE8048012100F087
:100F1000BBFE7E48022100F0A9FE794B01221A7027
:100F20002DE12CE17248042100F086FE0346002BDF
:100F300031D16F48082100F07FFE0346012B2AD1F2
:100F40006B48102100F078FE0346012B23D16C4B37
:100F50001B78022B1ED06B480421002201F040FABE
:100F600068480821002201F03BFA6648002101226E
:100F700001F036FA6448802100F086FE63480121C2
:100F800000F082FE6148022100F070FE5C4B0222FC
:100F90001A70F4E0F3E05648042100F04DFE0346D9
:100FA000002B31D15248082100F046FE0346012BA8
:100FB0002AD14F48102100F03FFE0346002B23D1D9
:100FC0004F4B1B78032B1ED04E480421002201F00A
:100FD00007FA4C480821002201F002FA4948002192
:100FE000012201F0FDF94948022100F04DFE46487A
:100FF000802100F049FE4548012100F037FE404BBA
:1010000002221A70BBE0BAE03948042100F014FE55
:101010000346012B31D13648082100F00DFE03466E
:10102000012B2AD13248102100F006FE0346002B86
:1010300023D1334B1B78042B1ED0324800210022D1
:1010400001F0CEF92F480421002201F0C9F92D4802
:101050000821012201F0C4F92C48022100F014FEFD
:101060002948802100F010FE2848012100F0FEFDF3
:10107000234B04221A7082E081E01D48042100F015
:10108000DBFD0346012B43D11948082100F0D4FDB4
:101090000346002B3CD11648102100F0CDFD03463D
:1010A000002B35D1164B1B78052B1ED0154800217F
:1010B000002201F095F913480421002201F090F973
:1010C00010480821012201F08BF91048022100F09C
:1010D000DBFD0E48012100F0D7FD0B48802100F018
:1010E000C5FD074B05221A7049E048E04100002089
:1010F000000C024068000020510000205000002039
:1011000002000020000401400000024000040240F0
:101110001B48042100F090FD0346012B2FD11848F5
:10112000082100F089FD0346002B28D11448102126
:1011300000F082FD0346012B21D1124B1B78062BB8
:101140001DD011480021002201F04AF90E48082163
:10115000002201F045F90C480421012201F040F978
:101160000A48022100F090FD0848012100F08CFDA2
:101170000748802100F07AFD024B06221A7080BDDC
:10118000000C024002000020000401400004024064
:101190000000024080B500AFA24B1B88002B40F03E
:1011A000B481A14B1B78002B20D1A04B1B78062BC0
:1011B00002D19D4B01221A709C4B1B780133DAB28D
:1011C0009A4B1A709A4B1B78002B05D0984B1B78C2
:1011D000013BDAB2964B1A70954B1B78002B02D16B
:1011E000934B06221A70934B1A221A70924B1A785C
:1011F0008F4B1B789A420CD08D4B1A788E4B1A70FD
:101200008E4B00221A708E4B1B780133DAB28C4B56
:101210001A70874B1B78013B052B00F2768101A2E7
:1012200052F823F03D120008AD1200081B1300080D
:101230008B130008FB1300089D1400087A4B1B78E1
:10124000002B0FD07F48012100F0F6FC0346002B55
:1012500008D0774B06221A70764B1B781A46714BD2
:101260001A8052E1754B1B78002B1ED17648002165
:10127000002201F0B5F874480821002201F0B0F80E
:1012800071480421012201F0ABF87048802100F080
:10129000FBFC6F48012100F0F7FC6D48022100F0D3
:1012A000E5FC664B01221A702FE12EE15E4B1B78A4
:1012B000002B0ED06348022100F0BEFC0346002B39
:1012C00007D15C4B1B781A46564B1A80584B0122AB
:1012D0001A705A4B1B78002B1ED15B480421002248
:1012E00001F07EF858480821002201F079F85648AC
:1012F0000021012201F074F85448802100F0C4FC60
:101300005348012100F0C0FC5148022100F0AEFC1E
:101310004A4B01221A70F8E0F7E0434B1B78002B90
:101320000FD04848042100F087FC0346002B08D06A
:101330003F4B02221A703F4B1B781A46394B1A80DA
:10134000E3E03E4B1B78002B1ED13F4804210022D6
:1013500001F046F83C480821002201F041F83A48E3
:101360000021012201F03CF83948022100F08CFCF8
:101370003648802100F088FC3548012100F076FCD9
:101380002E4B01221A70C0E0BFE0274B1B78002BC8
:101390000FD02C48012100F04FFC0346002B08D150
:1013A000234B03221A70234B1B781A461D4B1A80BD
:1013B000ABE0224B1B78002B1ED1234800210022DA
:1013C00001F00EF820480421002201F009F81E481F
:1013D0000821012201F004F81D48022100F054FC0C
:1013E0001A48802100F050FC1948012100F03EFC11
:1013F000124B01221A7088E087E00B4B1B78002B00
:1014000028D01048022100F017FC0346002B21D001
:10141000074B04221A70074B1B781A46014B1A809F
:1014200073E000BF2C0000203700002035000020B2
:101430003600002000000020390000203800002085
:101440003A00002000080240000401400000024071
:10145000000402402D4B1B78002B1ED12C4800218C
:10146000002200F0BDFF2A480421002200F0B8FF4E
:1014700027480821012200F0B3FF2648022100F08E
:1014800003FC2448012100F0FFFB2348802100F0E9
:10149000EDFB1E4B01221A7037E036E01F4B1B7824
:1014A000002B0FD01E48042100F0C6FB0346002B82
:1014B00008D11C4B05221A701B4B1B781A461B4B7C
:1014C0001A8022E0114B1B78002B1DD110480021FF
:1014D000002200F085FF0E480821002200F080FF66
:1014E0000B480421012200F07BFF0A48022100F092
:1014F000CBFB0848012100F0C7FB0748802100F022
:10150000B5FB024B01221A7000BF80BD38000020DD
:1015100000040140000402400000024037000020A7
:101520000008024036000020000000202C000020AF
:1015300080B500AFA84B1B88002B40F0C681A74B9D
:101540001B78002B20D1A64B1B78062B02D1A34B76
:1015500001221A70A24B1B780133DAB2A04B1A7029
:10156000A04B1B78002B05D09E4B1B78013BDAB2B9
:101570009C4B1A709B4B1B78002B02D1994B062277
:101580001A70994B1A221A70984B1A78954B1B783F
:101590009A420CD0934B1A78944B1A70944B0022B9
:1015A0001A70944B1B780133DAB2924B1A708D4B40
:1015B0001B78013B052B00F2888101A252F823F031
:1015C000D91500084F160008C3160008391700087F
:1015D000AF17000857180008804B1B78002B0FD05E
:1015E0008548082100F028FB0346002B08D07D4BDE
:1015F00006221A70814B1B781A46774B1A8064E1D9
:101600007B4B1B78002B21D17D480021002200F06C
:10161000E7FE7B480821002200F0E2FE7848042122
:10162000012200F0DDFE77484FF4005100F02CFB62
:1016300074484FF4804100F027FB72484FF400419A
:1016400000F014FB6A4B01221A703EE13DE1634B4E
:101650001B78002B0ED06848102100F0EDFA0346ED
:10166000002B07D1654B1B781A465B4B1A805D4BEC
:1016700001221A705E4B1B78002B21D16048042197
:10168000002200F0ADFE5E480821002200F0A8FE16
:101690005B480021012200F0A3FE5A484FF400519C
:1016A00000F0F2FA57484FF4804100F0EDFA554847
:1016B0004FF4004100F0DAFA4D4B01221A7004E1B8
:1016C00003E1464B1B78002B0FD04B48202100F044
:1016D000B3FA0346002B08D0424B02221A70474B44
:1016E0001B781A463C4B1A80EFE0414B1B78002BCD
:1016F00021D143480421002200F072FE4048082115
:10170000002200F06DFE3E480021012200F068FE3C
:101710003C484FF4004100F0B7FA3A484FF400510A
:1017200000F0B2FA37484FF4804100F09FFA304B96
:1017300001221A70C9E0C8E0284B1B78002B0FD09B
:101740002D48082100F078FA0346002B08D1254BDC
:1017500003221A70294B1B781A461F4B1A80B4E0DB
:10176000234B1B78002B21D125480021002200F0BB
:1017700037FE23480421002200F032FE20480821D1
:10178000012200F02DFE1F484FF4004100F07CFACA
:101790001C484FF4005100F077FA1A484FF480418A
:1017A00000F064FA124B01221A708EE08DE00B4BB0
:1017B0001B78002B28D01048102100F03DFA03467A
:1017C000002B21D0074B04221A700C4B1B781A46B1
:1017D000014B1A8079E000BF2E0000203D00002060
:1017E0003B0000203C000020000000203F000020C3
:1017F0003E000020400000200008024001000020C0
:101800000000014000040240304B1B78002B21D126
:101810002F480021002200F0E3FD2D480421002282
:1018200000F0DEFD2A480821012200F0D9FD2948F8
:101830004FF4004100F028FA26484FF4804100F0B0
:1018400023FA24484FF4005100F010FA1F4B0122F4
:101850001A703AE039E0204B1B78002B0FD01F485C
:10186000202100F0E9F90346002B08D11C4B05228A
:101870001A701C4B1B781A461B4B1A8025E0134B21
:101880001B78002B20D112480021002200F0A8FD77
:101890000F480821002200F0A3FD0D480421012279
:1018A00000F09EFD0B484FF4004100F0EDF90948AF
:1018B0004FF4804100F0E8F906484FF4005100F081
:1018C000D5F9024B01221A7000BF80BD3E000020F6
:1018D00000000140000402403D00002000080240DA
:1018E0003C000020010000202E00002080B500AF49
:1018F00007480021002200F073FD05480421002262
:1019000000F06EFD02480821002200F069FD80BD54
:101910000008004080B489B000AF78600023BB614C
:1019200000237B610023FB6102233B610023FB60FA
:101930000223BB60484B9B6803F00C03BB61BB698F
:10194000042B07D0082B09D0002B3FD17B68434ADA
:101950001A603FE07B68424A1A603BE03E4B5B689E
:1019600003F480039B0DFB603B4B5B6803F03F037C
:10197000BB60FB68002B0DD0394ABB68B2FBF3F2A9
:10198000354B596847F6C0730B409B0903FB02F3C4
:10199000FB610CE0314ABB68B2FBF3F22E4B596895
:1019A00047F6C0730B409B0903FB02F3FB612A4B14
:1019B0005B6803F440331B0C01335B003B61FA6945
:1019C0003B69B2FBF3F27B681A6003E07B68234A51
:1019D0001A6000BF204B9B6803F0F003BB61BB693A
:1019E0001B09BB611F4ABB6913441B78DBB27B61D7
:1019F0007B681A687B69DA407B685A60164B9B6883
:101A000003F4E053BB61BB699B0ABB61154ABB6928
:101A100013441B78DBB27B617B685A687B69DA40D0
:101A20007B689A600C4B9B6803F46043BB61BB69A5
:101A30005B0BBB610B4ABB6913441B78DBB27B6158
:101A40007B685A687B69DA407B68DA602437BD4678
:101A50005DF8047B704700BF003802400024F400AA
:101A600000127A000400002080B483B000AF7860D8
:101A70000B46FB70FB78002B06D0094B084A116B14
:101A80007A680A431A6306E0054B054A116B7A68C7
:101A9000D2430A401A630C37BD465DF8047B704799
:101AA0000038024080B483B000AF78600B46FB7012
:101AB000FB78002B06D0094B084A116C7A680A4360
:101AC0001A6406E0054B054A116C7A68D2430A4055
:101AD0001A640C37BD465DF8047B7047003802403D
:101AE00080B483B000AF78600B46FB70FB78002BAE
:101AF00006D0094B084A516C7A680A435A6406E0DA
:101B0000054B054A516C7A68D2430A405A640C3737
:101B1000BD465DF8047B70470038024080B487B052
:101B200000AF7860396000237B6100233B610023B4
:101B3000FB6000237B6176E07B69012202FA03F3FC
:101B40003B613B681A683B691340FB60FA683B697C
:101B50009A4265D17B681A687B695B00032101FAB0
:101B600003F3DB431A407B681A607B681A683B68A2
:101B70001B7919467B695B0001FA03F31A437B6802
:101B80001A603B681B79012B03D03B681B79022B41
:101B90002ED17B689A687B695B00032101FA03F30D
:101BA000DB431A407B689A607B689A683B685B7984
:101BB00019467B695B0001FA03F31A437B689A605C
:101BC0007B685A687B699BB2012101FA03F3DB430E
:101BD0001A407B685A607B685A683B689B79194653
:101BE0007B699BB201FA03F39BB21A437B685A608C
:101BF0007B68DA687B699BB25B00032101FA03F31F
:101C0000DB431A407B68DA607B68DA683B68DB7923
:101C100019467B695B0001FA03F31A437B68DA60BB
:101C20007B6901337B617B690F2B85D91C37BD46EE
:101C30005DF8047B704700BF80B485B000AF78606A
:101C40000B467B800023FB737B681A697B881340FB
:101C5000002B02D00123FB7301E00023FB73FB7B0D
:101C600018461437BD465DF8047B704780B483B0D6
:101C700000AF78600B467B807B687A881A830C37CC
:101C8000BD465DF8047B704780B483B000AF7860D8
:101C90000B467B807B687A885A830C37BD465DF89B
:101CA000047B704780B485B000AF786013460A4665
:101CB0007A807B700023FB600023BB607A787B888E
:101CC00003F007039B0002FA03F3FB607B88DB0849
:101CD0009BB21A467B88DB089BB219467B680831A9
:101CE00053F821107B8803F007039B000F2000FAB4
:101CF00003F3DB4319407B68083243F822107B88EA
:101D0000DB089BB21A467B68083253F82220FB6836
:101D10001343BB607B88DB089BB21A467B680832A2
:101D2000B96843F822101437BD465DF8047B70474C
:101D300080B500AF114B114A126842F001021A60DF
:101D40000E4B00229A600D4A0C4B1B6823F08473E3
:101D500023F480331360094B094A5A60074B074A42
:101D6000126822F480221A60044B0022DA6000F02C
:101D70000BF8044B4FF000629A6080BD00380240BF
:101D80001030002400ED00E080B483B000AF0023E9
:101D90007B6000233B60354B344A126842F480324A
:101DA0001A60324B1B6803F400333B607B680133DD
:101DB0007B603B68002B03D17B68B3F5A06FF0D14B
:101DC0002A4B1B6803F40033002B02D001233B6035
:101DD00001E000233B603B68012B42D1234B234AA7
:101DE000126C42F080521A64214B214A126842F46C
:101DF00080421A601D4B1D4A92689A601B4B1B4A19
:101E0000926842F400429A60184B184A926842F471
:101E1000A0529A60154B174A5A60144B134A126825
:101E200042F080721A6000BF104B1B6803F0007311
:101E3000002BF9D0104B40F205621A600B4B0B4A95
:101E4000926822F003029A60084B084A926842F0B6
:101E500002029A6000BF054B9B6803F00C03082B3D
:101E6000F9D10C37BD465DF8047B7047003802405D
:101E70000070004008544007003C024080B485B028
:101E800000AF786039600023FB817B681B88FB8191
:101E90007A68284B9A4213D07A68274B9A420FD01F
:101EA0007B68B3F1804F0BD07A68244B9A4207D0FD
:101EB0007A68234B9A4203D07A68224B9A4208D11F
:101EC000FB8923F07003FB813B685A88FB8913432D
:101ED000FB817A681C4B9A420CD07A681B4B9A4261
:101EE00008D0FB8923F44073FB813B681A89FB8986
:101EF0001343FB817B68FA891A803B685A687B68C8
:101F0000DA623B681A887B681A857A68094B9A42BC
:101F100003D07A68084B9A4204D13B689B7A1A46F0
:101F20007B681A867B6801229A821437BD465DF869
:101F3000047B7047000001400004014000040040A1
:101F400000080040000C0040001000400014004059
:101F500080B483B000AF78600B46FB70FB78002B39
:101F600008D07B681B889BB243F080039AB27B68E1
:101F70001A8007E07B681B889BB223F080039AB22B
:101F80007B681A800C37BD465DF8047B704700BF44
:101F900080B483B000AF78600B46FB70FB78002BF9
:101FA00008D07B681B889BB243F001039AB27B6820
:101FB0001A8007E07B681B889BB223F001039AB26A
:101FC0007B681A800C37BD465DF8047B704700BF04
:101FD00080B485B000AF7860396000237B81002336
:101FE000FB810023BB817B681B8C9BB223F0010328
:101FF0009AB27B681A847B681B8CFB817B689B8808
:10200000BB817B681B8B7B817B8923F070037B8189
:102010007B8923F003037B813B681A887B89134308
:102020007B81FB8923F00203FB813B689A89FB8952
:102030001343FB813B685A88FB891343FB817A6811
:102040001E4B9A4203D07A681D4B9A4223D1FB89DA
:1020500023F00803FB813B68DA89FB891343FB818A
:10206000FB8923F00403FB813B689A88FB891343B7
:10207000FB81BB8923F48073BB81BB8923F400738C
:10208000BB813B681A8ABB891343BB813B685A8A70
:10209000BB891343BB817B68BA899A807B687A8944
:1020A0001A833B689A687B685A637B68FA891A844A
:1020B0001437BD465DF8047B704700BF0000014047
:1020C0000004014080B485B000AF7860396000231F
:1020D0007B810023FB810023BB817B681B8C9BB22F
:1020E00023F010039AB27B681A847B681B8CFB81F7
:1020F0007B689B88BB817B681B8B7B817B8923F4FE
:10210000E0437B817B8923F440737B813B681B88A0
:102110001B029AB27B8913437B81FB8923F0200346
:10212000FB813B689B891B019AB2FB891343FB81AE
:102130003B685B881B019AB2FB891343FB817A6879
:10214000224B9A4203D07A68214B9A422BD1FB89C9
:1021500023F08003FB813B68DB891B019AB2FB897A
:102160001343FB81FB8923F04003FB813B689B8881
:102170001B019AB2FB891343FB81BB8923F4806363
:10218000BB81BB8923F40063BB813B681B8A9B0036
:102190009AB2BB891343BB813B685B8A9B009AB2AE
:1021A000BB891343BB817B68BA899A807B687A8933
:1021B0001A833B689A687B689A637B68FA891A84F9
:1021C0001437BD465DF8047B704700BF0000014036
:1021D0000004014080B485B000AF7860396000230E
:1021E0007B810023FB810023BB817B681B8C9BB21E
:1021F00023F480739AB27B681A847B681B8CFB8102
:102200007B689B88BB817B689B8B7B817B8923F070
:1022100070037B817B8923F003037B813B681A88F1
:102220007B8913437B81FB8923F40073FB813B682B
:102230009B891B029AB2FB891343FB813B685B8835
:102240001B029AB2FB891343FB817A68224B9A42A4
:1022500003D07A68214B9A422BD1FB8923F4006387
:10226000FB813B68DB891B029AB2FB891343FB812C
:10227000FB8923F48063FB813B689B881B029AB235
:10228000FB891343FB81BB8923F48053BB81BB894A
:1022900023F40053BB813B681B8A1B019AB2BB89A4
:1022A0001343BB813B685B8A1B019AB2BB89134312
:1022B000BB817B68BA899A807B687A899A833B68FC
:1022C0009A687B68DA637B68FA891A841437BD469A
:1022D0005DF8047B704700BF00000140000401402E
:1022E00080B483B000AF786039607B683A685A6325
:1022F0000C37BD465DF8047B704700BF80B483B0E7
:1023000000AF786039607B683A689A630C37BD46E5
:102310005DF8047B704700BF80B483B000AF786085
:1023200039607B683A68DA630C37BD465DF8047B38
:10233000704700BF80B485B000AF78600B467B80EB
:102340000023FB817B681B8BFB81FB8923F0080347
:10235000FB81FA897B881343FB817B68FA891A83A6
:102360001437BD465DF8047B704700BF80B485B06C
:1023700000AF78600B467B800023FB817B681B8B62
:10238000FB81FB8923F40063FB817B881B029AB2EB
:10239000FB891343FB817B68FA891A831437BD4696
:1023A0005DF8047B704700BF80B485B000AF7860F3
:1023B0000B467B800023FB817B689B8BFB81FB8929
:1023C00023F00803FB81FA897B881343FB817B6838
:1023D000FA899A831437BD465DF8047B704700BFC5
:1023E00080B485B000AF786013460A467A803B809F
:1023F0000023FB817B88012202FA03F3FB817B68C7
:102400001B8C9AB2FB89DB439BB213409AB27B6868
:102410001A847B681B8C9AB239887B8801FA03F393
:102420009BB213439AB27B681A841437BD465DF899
:10243000047B704780B483B000AF78600B46FB70BC
:10244000FB78002B0CD07B68B3F844309BB26FEA6A
:1024500043436FEA53439AB27B68A3F8442009E0F0
:102460007B68B3F844309BB2C3F30E039AB27B6827
:10247000A3F844200C37BD465DF8047B704700BFCD
:10248000F0B4840743D0541E002A3ED0CDB2034698
:1024900003E0621E002C38D0144603F8015B9A0753
:1024A000F7D1032C2AD9CDB245EA05250F2C45EAF0
:1024B000054515D9A4F110073F0903F1100606EBF5
:1024C00007161A46156055609560D5601032B24205
:1024D000F8D104F00F040137032C03EB07130DD9D7
:1024E0001E462246043A032A46F8045BFAD8221F05
:1024F00022F003020432134404F003042CB1C9B2E5
:102500001C4403F8011BA342FBD1F0BC70471446E6
:102510000346C6E740EA010C1CF0070F27D1BDF1C6
:10252000100DCDE90245CDE900676FF000064FF0D0
:10253000000700BFF0E80223F1E80245A242A2F141
:10254000013C2CEA020C0CF0803C08BFBCF1000FEF
:1025500040F0E580AB42A3F1013C2CEA030C0CF007
:10256000803C08BFBCF1000F40F0D680E2E710F0DD
:10257000030C21D020F0030050F8042B5FEACC7C40
:1025800008D00FD211F801CB5FFA92F3B3EB0C0C29
:1025900010D17BB111F801CB5FFAA2F3B3EB0C0CB5
:1025A00008D13BB111F801CB5FFAB2F3B3EB0C0CDD
:1025B00000D10BB960467047BDF1100DCDE9024561
:1025C000CDE900676FF000064FF0000711F0030C33
:1025D00033D110F0040F0FD050F8042B51F8044BF6
:1025E000A242A2F1013C2CEA020C0CF0803C08BF94
:1025F000BCF1000F40F0938011F0040F99D051F816
:10260000045B00BFF0E80223AA42A2F1013C2CEADD
:10261000020C0CF0803C08BFBCF1000F79D1F1E84E
:102620000245A342A3F1013C2CEA030C0CF0803CD0
:1026300008BFBCF1000F69D1E4E721F00301BCF150
:10264000020F20D03FDA51F8045B00BF50F8043B82
:102650004FEA1525A3F1013C2CEA030C0CF0803C59
:10266000B7EB0C2F03EA162208BFAA4251D151F84A
:10267000045BBCF1000F82EA03034FEA056208BF66
:10268000934240D1E2E751F8045B00BF50F8043BAD
:102690004FEA1545A3F1013C2CEA030C0CF0803CF9
:1026A000B7EB0C4F03EA164208BFAA4231D151F8EA
:1026B000045BBCF1000F82EA03034FEA054208BF46
:1026C000934220D1E2E751F8045B00BF50F8043B8D
:1026D0004FEA1565A3F1013C2CEA030C0CF0803C99
:1026E000B7EB0C6F03EA166208BFAA4211D151F88A
:1026F000045BBCF1000F82EA03034FEA052208BF26
:10270000934200D1E2E719BA12BA0AE019BA22BA22
:1027100007E011BA2ABA04E019BA2ABA01E011BADC
:1027200022BA9CFA8CF0DDE90067DDE902451DF173
:10273000100D38B1B0FA80F0C0F1180021FA00F1A4
:1027400022FA00F20120914298BF8041704700BFF9
:1027500050726F6772616D20697320726561647970
:102760000A0D000073746172740D000050726F677F
:1027700072616D2073746172740D000073746F70F8
:102780000D00000050726F6772616D2073746F707E
:102790000D00000053706565643430300D0000009A
:1027A0005370656564203430300A0D0053706565E0
:1027B000643230300D0000005370656564203230A3
:1027C000300A0D004669727374207374617274204C
:1027D0006D6F746F720A0D00537065656439303027
:1027E0000D0000005370656564313030300D00001D
:1027F000454D460D00000000454D460A0D00000005
:10280000596F752073656E643A200000427574201C
:10281000636F6D6D616E6420756E6465636C61726B
:0828200065642E0D00000000AC
:102828001313640000000000010203040102030402
:1028380006070809007A030A0000000000000000EB
:08284800010203040607080960
:0400000508000000EF
:00000001FF
