:020000040800F2
:10000000703F0020290F00087D0F00087D0F0008B9
:100010007D0F00087D0F00087D0F00080000000024
:100020000000000000000000000000007D0F00083C
:100030007D0F0008000000007D0F0008CD40000883
:100040007D0F00087D0F00087D0F00087D0F000860
:100050007D0F00087D0F00087D0F00087D0F000850
:100060007D0F00087D0F00087D0F00087D0F000840
:100070007D0F00087D0F00087D0F00087D0F000830
:100080007D0F00087D0F00087D0F00087D0F000820
:100090007D0F00087D0F00087D0F00087D0F000810
:1000A0007D0F00087D0F00087D0F00087D0F000800
:1000B0007D0F00087D0F00087D0F00087D0F0008F0
:1000C0007D0F00087D0F00087D0F00087D0F0008E0
:1000D0007D0F00087D0F00088D3F00087D0F000890
:1000E0007D0F00087D0F00087D0F00087D0F0008C0
:1000F0007D0F00087D0F00087D0F00087D0F0008B0
:100100007D0F00087D0F00087D0F00087D0F00089F
:100110007D0F00087D0F00087D0F00087D0F00088F
:100120007D0F00087D0F00087D0F00087D0F00087F
:100130007D0F00087D0F00087D0F00087D0F00086F
:100140007D0F00087D0F00087D0F00087D0F00085F
:100150007D0F00087D0F00087D0F00087D0F00084F
:100160007D0F00087D0F00087D0F00087D0F00083F
:100170007D0F00087D0F00087D0F00087D0F00082F
:100180007D0F00087D0F000880B582B000AF786059
:100190007B683C4A934208D10121012001F06EFAAC
:1001A0000021012001F06AFA68E07B68364A934238
:1001B00008D10121022001F061FA0021022001F0A2
:1001C0005DFA5BE07B68314A934208D1012104204B
:1001D00001F054FA0021042001F050FA4EE07B684F
:1001E0002B4A934208D10121082001F047FA00214F
:1001F000082001F043FA41E07B68264A934208D187
:100200000121102001F03AFA0021102001F036FA05
:1002100034E07B68204A934208D10121202001F07C
:100220002DFA0021202001F029FA27E07B681B4AE3
:10023000934208D10121402001F020FA0021402002
:1002400001F01CFA1AE07B68154A934208D101219B
:10025000802001F013FA0021802001F00FFA0DE058
:100260007B68104A934209D101214FF4807001F05C
:1002700005FA00214FF4807001F000FA00BF083742
:10028000BD4680BD0000024000040240000802405C
:10029000000C02400010024000140240001802400E
:1002A000001C02400020024080B487B000AF78609C
:1002B000396000237B6100233B610023FB60002346
:1002C0007B6176E001227B6902FA03F33B613B68C4
:1002D0001A683B691340FB60FA683B699A4265D132
:1002E0007B681A687B695B00032101FA03F3DB4337
:1002F0001A407B681A607B681A683B681B7919464C
:100300007B695B0001FA03F31A437B681A603B6860
:100310001B79012B03D03B681B79022B2ED17B6804
:100320009A687B695B00032101FA03F3DB431A40FF
:100330007B689A607B689A683B685B7919467B6941
:100340005B0001FA03F31A437B689A607B685A6882
:100350007B699BB2194601238B40DB431A407B68C3
:100360005A607B685B683A68927911467A6992B202
:1003700001FA02F292B21A437B685A607B68DA682B
:100380007B699BB25B00032101FA03F3DB431A4054
:100390007B68DA607B68DA683B68DB7919467B69E1
:1003A0005B0001FA03F31A437B68DA607B6901336F
:1003B0007B617B690F2B85D900BF1C37BD4680BC94
:1003C000704700BF80B483B000AF78607B684FF6A1
:1003D000FF721A607B6800221A717B6800225A71D2
:1003E0007B6800229A717B680022DA7100BF0C37AB
:1003F000BD4680BC704700BF80B485B000AF786058
:100400000B467B804FF48033FB607A88FB68134394
:10041000FB60FA687B68DA617A887B68DA61FA687F
:100420007B68DA617B68DB69FB607B68DB69FB60AA
:1004300000BF1437BD4680BC704700BF80B485B094
:1004400000AF78600B467B800023FB737B681A69E2
:100450007B881340002B02D00123FB7301E00023B3
:10046000FB73FB7B18461437BD4680BC704700BF4A
:1004700080B483B000AF78607B681B699BB218467C
:100480000C37BD4680BC704780B485B000AF786043
:100490000B467B800023FB737B685A697B88134083
:1004A000002B02D00123FB7301E00023FB73FB7BD5
:1004B00018461437BD4680BC704700BF80B483B077
:1004C00000AF78607B685B699BB218460C37BD460D
:1004D00080BC704780B483B000AF78600B467B80EF
:1004E0007B687A881A8300BF0C37BD4680BC704792
:1004F00080B483B000AF78600B467B807B687A88DD
:100500005A8300BF0C37BD4680BC704780B483B0AF
:1005100000AF78600B467B8013467B707B78002BA6
:1005200003D07B687A881A8302E07B687A885A83D2
:1005300000BF0C37BD4680BC704700BF80B483B09D
:1005400000AF78600B467B807A887B685A6100BF79
:100550000C37BD4680BC704780B483B000AF786074
:100560000B467B807B685A697B885A407B685A615E
:1005700000BF0C37BD4680BC704700BF80B485B05B
:1005800000AF78600B467B8013467B700023FB60D6
:100590000023BB607A787B8803F007039B0002FA94
:1005A00003F3FB607B88DB089BB218467B88DB0883
:1005B0009BB21A467B68083253F822207B8803F0EE
:1005C00007039B000F2101FA03F3DB4302EA030157
:1005D0007B6800F1080243F822107B88DB089BB29D
:1005E0001A467B68083253F82220FB681343BB602D
:1005F0007B88DB089BB21A467B680832B96843F8EF
:10060000221000BF1437BD4680BC704780B582B051
:1006100000AF78607B682C4A934208D101211020FA
:1006200001F0A4F80021102001F0A0F847E07B6859
:10063000264A93420AD101214FF4003001F078F8A4
:1006400000214FF4003001F073F838E07B68204A55
:1006500093420AD101214FF4802001F069F8002172
:100660004FF4802001F064F829E07B68194A934236
:100670000AD101214FF4002001F05AF800214FF473
:10068000002001F055F81AE07B68134A93420AD122
:1006900001214FF4801001F04BF800214FF480103D
:1006A00001F046F80BE07B680C4A934207D1012128
:1006B000202001F05BF80021202001F057F800BF56
:1006C0000837BD4680BD00BF001001400044004017
:1006D00000480040004C0040005000400014014021
:1006E00080B58AB000AF7860396000237B62002358
:1006F0003B620023FB610023BB617B681B8A9BB2CA
:100700007B627B6A23F440537B623B68DB881A463A
:100710007B6A13437B627B6A9AB27B681A827B682E
:100720009B899BB27B627B6A23F4B05323F00C035A
:100730007B623B689A883B681B8913439AB23B688B
:100740005B8913439BB21A467B6A13437B627B6AC5
:100750009AB27B689A817B689B8A9BB27B627B6A38
:1007600023F440737B623B689B891A467B6A134380
:100770007B627B6A9AB27B689A8207F1080318460B
:1007800000F0E0FD7B68304A934203D07B682F4A3B
:10079000934202D17B693B6201E03B693B627B682B
:1007A0009B899BB21BB2002B0CDA3A6A13469B0062
:1007B00013449A001A443B681B685B00B2FBF3F3D6
:1007C000FB610BE03A6A13469B0013449A001A44FB
:1007D0003B681B689B00B2FBF3F3FB61FB691C4A9F
:1007E000A2FB03235B091B017B627B6A1B0964225A
:1007F00002FB03F3FA69D31ABB617B689B899BB246
:100800001BB2002B0CDABB69DB003233104AA2FBAF
:1008100003235B0903F007037A6A13437B620BE04F
:10082000BB691B0132330A4AA2FB03235B0903F0B5
:100830000F037A6A13437B627B6A9AB27B681A81E0
:1008400000BF2837BD4680BD0010014000140140A4
:100850001F85EB5180B483B000AF78607B684FF4A4
:1008600016521A607B6800229A807B680022DA8028
:100870007B6800221A817B680C225A817B680022E7
:100880009A8100BF0C37BD4680BC704780B485B0EC
:1008900000AF786039600023FB607B681B8A9BB2E5
:1008A000FB60FB6823F47063FB603B681A883B685D
:1008B0005B8813439AB23B689B8813439AB23B68A8
:1008C000DB8813439BB21A46FB681343FB60FB684B
:1008D0009AB27B681A8200BF1437BD4680BC70474D
:1008E00080B483B000AF78607B6800221A807B6898
:1008F00000225A807B6800229A807B680022DA807E
:1009000000BF0C37BD4680BC704700BF80B483B0C9
:1009100000AF78600B46FB70FB78002B08D07B683B
:100920009B899BB243F400539AB27B689A8107E09B
:100930007B689B899BB223F400539AB27B689A81AF
:1009400000BF0C37BD4680BC704700BF80B483B089
:1009500000AF78600B46FB707B681B8B9BB223F06B
:10096000FF039AB27B681A837B681B8B9AB2FB7871
:100970009BB213439AB27B681A8300BF0C37BD4603
:1009800080BC704780B483B000AF78600B46FB70CA
:10099000FB78002B0AD07B689B899BB26FEA4343AC
:1009A0006FEA53439AB27B689A8107E07B689B8920
:1009B0009BB2C3F30E039AB27B689A8100BF0C37D7
:1009C000BD4680BC704700BF80B483B000AF786084
:1009D0000B46FB70FB78002B08D07B689B8A9BB290
:1009E00043F400639AB27B689A8207E07B689B8A33
:1009F0009BB223F400639AB27B689A8200BF0C37E3
:100A0000BD4680BC704700BF80B483B000AF786043
:100A10000B467B807B88C3F308039AB27B689A807D
:100A200000BF0C37BD4680BC704700BF80B483B0A8
:100A300000AF78607B689B889BB2C3F308039BB2CE
:100A400018460C37BD4680BC704700BF80B483B0E9
:100A500000AF78600B46FB707B681B8A9BB223F06B
:100A60000F039AB27B681A827B681B8A9AB2FB7862
:100A70009BB213439AB27B681A8200BF0C37BD4603
:100A800080BC704780B483B000AF78600B46FB70C9
:100A9000FB78002B08D07B689B899BB243F0020354
:100AA0009AB27B689A8107E07B689B899BB223F0AE
:100AB00002039AB27B689A8100BF0C37BD4680BCA6
:100AC000704700BF80B483B000AF78600B467B8076
:100AD0007B689B899BB223F400639AB27B689A81FE
:100AE0007B689B899AB27B8813439AB27B689A8110
:100AF00000BF0C37BD4680BC704700BF80B483B0D8
:100B000000AF78600B467B807B681B8A9BB223F02A
:100B100020039AB27B681A827B681B8A9AB27B8810
:100B200013439AB27B681A8200BF0C37BD4680BC63
:100B3000704700BF80B483B000AF78600B46FB7095
:100B4000FB78002B08D07B681B8A9BB243F4804360
:100B50009AB27B681A8207E07B681B8A9BB223F4F7
:100B600080439AB27B681A8200BF0C37BD4680BCB6
:100B7000704700BF80B483B000AF78607B689B890A
:100B80009BB243F001039AB27B689A8100BF0C3795
:100B9000BD4680BC704700BF80B483B000AF7860B2
:100BA0000B46FB70FB78002B08D07B689B8A9BB2BE
:100BB00043F008039AB27B689A8207E07B689B8ABD
:100BC0009BB223F008039AB27B689A8200BF0C376D
:100BD000BD4680BC704700BF80B483B000AF786072
:100BE0000B46FB707B681B8B9BB2DBB29AB27B68B7
:100BF0001A837B681B8B9AB2FB789BB21B029BB259
:100C000013439AB27B681A8300BF0C37BD4680BC81
:100C1000704700BF80B483B000AF78600B46FB70B4
:100C2000FB78002B08D07B689B8A9BB243F02003A3
:100C30009AB27B689A8207E07B689B8A9BB223F01A
:100C400020039AB27B689A8200BF0C37BD4680BCF5
:100C5000704700BF80B483B000AF78600B46FB7074
:100C6000FB78002B08D07B689B8A9BB243F0100373
:100C70009AB27B689A8207E07B689B8A9BB223F0DA
:100C800010039AB27B689A8200BF0C37BD4680BCC5
:100C9000704700BF80B483B000AF78600B467B80A4
:100CA0007B689B8A9BB223F004039AB27B689A828A
:100CB0007B689B8A9AB27B8813439AB27B689A823C
:100CC00000BF0C37BD4680BC704700BF80B483B006
:100CD00000AF78600B46FB70FB78002B08D07B6878
:100CE0009B8A9BB243F002039AB27B689A8207E028
:100CF0007B689B8A9BB223F002039AB27B689A823C
:100D000000BF0C37BD4680BC704700BF80B483B0C5
:100D100000AF78600B467B8013467B707B78002B9E
:100D200008D07B689B8A9AB27B8813439AB27B680F
:100D30009A8209E07B689B8A9AB27B88DB439BB2EC
:100D400013409AB27B689A8200BF0C37BD4680BCC4
:100D5000704700BF80B487B000AF78600B467B80DF
:100D600013467B7000233B610023FB600023BB60C4
:100D700000237B617B687B617B88DBB25B09DBB234
:100D80003B617B8803F01F03FB600122FB6802FAD2
:100D900003F3BB603B69012B03D17B690C337B619F
:100DA00009E03B69022B03D17B6910337B6102E0D0
:100DB0007B6914337B617B78002B06D07B697A6971
:100DC0001168BA680A431A6006E07B697A6911689B
:100DD000BA68D2430A401A6000BF1C37BD4680BCC7
:100DE000704700BF80B485B000AF78600B467B8051
:100DF0000023FB737B681B889AB27B8813409BB2ED
:100E0000002B02D00123FB7301E00023FB73FB7B6B
:100E100018461437BD4680BC704700BF80B483B00D
:100E200000AF78600B467B807B88DB439AB27B689F
:100E30001A8000BF0C37BD4680BC704780B487B0B5
:100E400000AF78600B467B800023FB6000237B6152
:100E50000023BB600023FB747B88DBB25B09DBB241
:100E6000BB607B8803F01F037B6101227B6902FA70
:100E700003F37B61BB68012B07D17B689B899BB225
:100E80001A467B6913407B6111E0BB68022B07D1D6
:100E90007B681B8A9BB21A467B6913407B6106E024
:100EA0007B689B8A9BB21A467B6913407B617B8877
:100EB0001B0A9BB2FB600122FB6802FA03F3FB6092
:100EC0007B681B889BB21A46FB681340FB607B69FA
:100ED000002B05D0FB68002B02D00123FB7401E03E
:100EE0000023FB74FB7C18461C37BD4680BC704752
:100EF00080B485B000AF78600B467B800023FB8117
:100F00000023BB817B881B0AFB81FB89012202FA3B
:100F100003F3BB81BB89DB439AB27B681A8000BFB5
:100F20001437BD4680BC704780B582B000AF104B0F
:100F30007B60104B3B6007E03B681A1D3A607A68A3
:100F4000111D796012681A603B680B4A9342F3D313
:100F50000C480D494FF000028842B8BF40F8042BFE
:100F6000FADB02F037FE00BF0837BD4680BD00BF88
:100F7000244F0008000000203000002080B400AFA3
:100F8000FEE70000300000206C37002080B400AF86
:100F9000104A104B1B6843F0010313600D4B0022F5
:100FA0009A600C4A0B4B1B6823F0847323F4803344
:100FB0001360084B084A5A60064A064B1B6823F424
:100FC00080231360034B0022DA6000BFBD4680BC63
:100FD000704700BF003802401030002480B483B056
:100FE00000AF0346FB71054B00221A70034AFB79E0
:100FF000137000BF0C37BD4680BC704702380240FA
:1010000080B582B000AF00233B600023FB7100235A
:10101000BB71312000F084FC0346BB713B68013397
:101020003B603B68B3F5A06F02D0BB79002BF0D0DA
:10103000312000F075FC0346002B02D00123FB7128
:1010400001E00023FB71FB7918460837BD4680BDDF
:1010500080B485B000AF0346FB710023FB600A4BF0
:101060001B68FB60FB6823F0F803FB60FB79DB0087
:10107000FA681343FB60044AFB68136000BF14372F
:10108000BD4680BC704700BF0038024080B483B0CA
:1010900000AF0346FB71044AFB79136000BF0C37B5
:1010A000BD4680BC704700BF0000474280B483B09B
:1010B00000AF0346FB710C4B00221A700A4B002252
:1010C0001A70FB79012B02D0042B04D007E0064BE9
:1010D00001221A7003E0044B05221A7000BF00BF02
:1010E0000C37BD4680BC70477038024080B483B076
:1010F00000AF0346FB71044AFB79136000BF0C3755
:10110000BD4680BC704700BF800E474280B485B0AA
:1011100000AFF860B9607A603B600A497B689A0169
:10112000BB681A433B685B08013B1B041A43FB681E
:101130001A43BB691B0613434B6000BF1437BD46FF
:1011400080BC70470038024080B483B000AF0346D3
:10115000FB71044AFB79136000BF0C37BD4680BCAD
:10116000704700BF6000474280B483B000AF786032
:10117000396006497B689A013B681B071343C1F835
:10118000843000BF0C37BD4680BC70470038024039
:1011900080B483B000AF0346FB71044AFB7913604F
:1011A00000BF0C37BD4680BC704700BF6800474297
:1011B00080B483B000AF0346FB71044AFB7913602F
:1011C00000BF0C37BD4680BC704700BF4C00474293
:1011D00080B485B000AF786039600023FB600A4BB3
:1011E0009B68FB60FB6823F0EC63FB607A683B68FC
:1011F0001343FA681343FB60034AFB68936000BF24
:101200001437BD4680BC70470038024080B485B0BA
:1012100000AF786039600023FB600A4B9B68FB607D
:10122000FB6823F07843FB607A683B681343FA68F5
:101230001343FB60034AFB68936000BF1437BD464D
:1012400080BC70470038024080B485B000AF786041
:101250000023FB60094B9B68FB60FB6823F00303E2
:10126000FB60FA687B681343FB60044AFB68936089
:1012700000BF1437BD4680BC704700BF0038024035
:1012800080B400AF044B9B68DBB203F00C03DBB20D
:101290001846BD4680BC70470038024080B485B017
:1012A00000AF78600023FB60094B9B68FB60FB6824
:1012B00023F0F003FB60FA687B681343FB60044A89
:1012C000FB68936000BF1437BD4680BC704700BF09
:1012D0000038024080B485B000AF78600023FB6026
:1012E000094B9B68FB60FB6823F4E053FB60FA68E2
:1012F0007B681343FB60044AFB68936000BF1437AC
:10130000BD4680BC704700BF0038024080B485B045
:1013100000AF78600023FB60094B9B68FB60FB68B3
:1013200023F46043FB607B68DB00FA681343FB60D7
:10133000034AFB68936000BF1437BD4680BC70470A
:101340000038024080B489B000AF78600023BB61F0
:1013500000237B610023FB6102233B610023FB60D0
:101360000223BB60484B9B6803F00C03BB61BB6965
:10137000042B07D0082B09D0002B3FD17B68434AB0
:101380001A603FE07B68424A1A603BE03E4B5B6874
:1013900003F480039B0DFB603B4B5B6803F03F0352
:1013A000BB60FB68002B0DD0394ABB68B2FBF3F27F
:1013B000354B596847F6C0730B409B0903FB02F39A
:1013C000FB610CE0314ABB68B2FBF3F22E4B59686B
:1013D00047F6C0730B409B0903FB02F3FB612A4BEA
:1013E0005B6803F440331B0C01335B003B61FA691B
:1013F0003B69B2FBF3F27B681A6003E07B68234A27
:101400001A6000BF204B9B6803F0F003BB61BB690F
:101410001B09BB611F4ABB6913441B78DBB27B61AC
:101420007B681A687B69DA407B685A60164B9B6858
:1014300003F4E053BB61BB699B0ABB61154ABB69FE
:1014400013441B78DBB27B617B685A687B69DA40A6
:101450007B689A600C4B9B6803F46043BB61BB697B
:101460005B0BBB610B4ABB6913441B78DBB27B612E
:101470007B685A687B69DA407B68DA6000BF243792
:10148000BD4680BC704700BF003802400024F40015
:1014900000127A000000002080B485B000AF7860B0
:1014A0000023FB607B6803F44073B3F5407F11D1E8
:1014B0000F4B9B68FB60FB6823F4F813FB607B68B1
:1014C00023F0704323F44073FA681343FB60084A27
:1014D000FB6893600649064B1A6F7B68C3F30B03E6
:1014E00013430B6700BF1437BD4680BC704700BF75
:1014F0000038024080B483B000AF0346FB71044A59
:10150000FB79136000BF0C37BD4680BC704700BF3D
:101510003C0E474280B483B000AF0346FB71044ADF
:10152000FB79136000BF0C37BD4680BC704700BF1D
:10153000400E474280B483B000AF7860034A7B68B6
:10154000136000BF0C37BD4680BC70475C0147424A
:1015500080B483B000AF78600B46FB70FB78002B43
:1015600006D00949084B1A6B7B6813430B6306E0EE
:101570000549054B1A6B7B68DB4313400B6300BFC7
:101580000C37BD4680BC70470038024080B483B041
:1015900000AF78600B46FB70FB78002B06D0094942
:1015A000084B5A6B7B6813434B6306E00549054BB8
:1015B0005A6B7B68DB4313404B6300BF0C37BD465F
:1015C00080BC70470038024080B483B000AF7860C0
:1015D0000B46FB70FB78002B06D00949084B9A6B31
:1015E0007B6813438B6306E00549054B9A6B7B6868
:1015F000DB4313408B6300BF0C37BD4680BC704794
:101600000038024080B483B000AF78600B46FB70B6
:10161000FB78002B06D00949084B1A6C7B681343F2
:101620000B6406E00549054B1A6C7B68DB431340ED
:101630000B6400BF0C37BD4680BC704700380240C9
:1016400080B483B000AF78600B46FB70FB78002B52
:1016500006D00949084B5A6C7B6813434B6406E07B
:101660000549054B5A6C7B68DB4313404B6400BF54
:101670000C37BD4680BC70470038024080B483B050
:1016800000AF78600B46FB70FB78002B06D0094951
:10169000084B1A697B6813430B6106E00549054B4B
:1016A0001A697B68DB4313400B6100BF0C37BD46F2
:1016B00080BC70470038024080B483B000AF7860CF
:1016C0000B46FB70FB78002B06D00949084B5A6982
:1016D0007B6813434B6106E00549054B5A697B68FB
:1016E000DB4313404B6100BF0C37BD4680BC7047E5
:1016F0000038024080B483B000AF78600B46FB70C6
:10170000FB78002B06D00949084B9A697B68134384
:101710008B6106E00549054B9A697B68DB43134002
:101720008B6100BF0C37BD4680BC7047003802405B
:1017300080B483B000AF78600B46FB70FB78002B61
:1017400006D00949084B1A6A7B6813430B6206E00E
:101750000549054B1A6A7B68DB4313400B6200BFE7
:101760000C37BD4680BC70470038024080B483B05F
:1017700000AF78600B46FB70FB78002B06D0094960
:10178000084B5A6A7B6813434B6206E00549054BD8
:101790005A6A7B68DB4313404B6200BF0C37BD467F
:1017A00080BC70470038024080B483B000AF7860DE
:1017B0000B46FB70FB78002B06D00949084B1A6DCD
:1017C0007B6813430B6506E00549054B1A6D7B6882
:1017D000DB4313400B6500BF0C37BD4680BC704730
:1017E0000038024080B483B000AF78600B46FB70D5
:1017F000FB78002B06D00949084B5A6D7B681343D0
:101800004B6506E00549054B5A6D7B68DB43134089
:101810004B6500BF0C37BD4680BC704700380240A6
:1018200080B483B000AF78600B46FB70FB78002B70
:1018300006D00949084B9A6D7B6813438B6506E017
:101840000549054B9A6D7B68DB4313408B6500BFF0
:101850000C37BD4680BC70470038024080B483B06E
:1018600000AF78600B46FB70FB78002B06D009496F
:10187000084B1A6E7B6813430B6606E00549054B5F
:101880001A6E7B68DB4313400B6600BF0C37BD4606
:1018900080BC70470038024080B483B000AF7860ED
:1018A0000B46FB70FB78002B06D00949084B5A6E9B
:1018B0007B6813434B6606E00549054B5A6E7B680F
:1018C000DB4313404B6600BF0C37BD4680BC7047FE
:1018D0000038024080B483B000AF03460A46FB7173
:1018E0001346BB71BB79002B08D00C490B4B1B78FE
:1018F000DAB2FB791343DBB20B7009E00749074BFF
:101900001B78DAB2FB79DB43DBB21340DBB20B703E
:1019100000BF0C37BD4680BC704700BF0D38024089
:1019200080B487B000AF0346FB710023FB60002347
:101930007B610023FB74FB795B09DBB2FB60FB6816
:10194000012B03D1124B1B687B6109E0FB68022B62
:1019500003D10F4B1B6F7B6102E00D4B5B6F7B6113
:10196000FB7903F01F03FB607A69FB6822FA03F33B
:1019700003F00103002B02D00123FB7401E00023DC
:10198000FB74FB7C18461C37BD4680BC704700BF0B
:101990000038024080B400AF044A044B5B6F43F050
:1019A0008073536700BFBD4680BC7047003802405B
:1019B00080B485B000AF0346FB710023FB73084B76
:1019C000DA68FB791340002B02D00123FB7301E09E
:1019D0000023FB73FB7B18461437BD4680BC704761
:1019E0000038024080B483B000AF0346FB71044A64
:1019F000FB79137000BF0C37BD4680BC704700BF39
:101A00000E38024080B500AF124A124B1B6843F0FB
:101A1000010313600F4B00229A600E4A0D4B1B68A6
:101A200023F0847323F4803313600A4B0A4A5A600C
:101A3000084A084B1B6823F480231360054B0022DF
:101A4000DA6000F089F8054B4FF000629A6000BF41
:101A500080BD00BF003802401030002400ED00E0DF
:101A600080B487B000AF00233B6100237B61022379
:101A7000FB600023BB6002237B60324B9B6803F05A
:101A80000C033B613B69042B07D0082B09D0002BCA
:101A90003FD12D4B2D4A1A603FE02B4B2C4A1A6048
:101AA0003BE0284B5B6803F480039B0DBB60254B38
:101AB0005B6803F03F037B60BB68002B0DD0244ABA
:101AC0007B68B2FBF3F21F4B596847F6C0730B40BB
:101AD0009B0903FB02F37B610CE01C4A7B68B2FBB1
:101AE000F3F2184B596847F6C0730B409B0903FB90
:101AF00002F37B61134B5B6803F440331B0C01332F
:101B00005B00FB607A69FB68B2FBF3F30E4A13607B
:101B100003E00D4B0D4A1A6000BF0A4B9B6803F0AF
:101B2000F0031B090B4AD35CDBB23B61064B1A681E
:101B30003B6922FA03F3044A136000BF1C37BD4619
:101B400080BC704700380240100000200024F400E0
:101B500000127A001400002080B483B000AF00238C
:101B60007B6000233B60354A344B1B6843F4803371
:101B70001360324B1B6803F400333B607B68013316
:101B80007B603B68002B03D17B68B3F5A06FF0D17D
:101B90002A4B1B6803F40033002B02D001233B6067
:101BA00001E000233B603B68012B42D1234A234BD9
:101BB0001B6C43F080531364214A214B1B6843F490
:101BC000804313601D4A1D4B9B6893601B4A1B4B4F
:101BD0009B6843F400439360184A184B9B6843F496
:101BE000A0539360154B174A5A60144A134B1B6855
:101BF00043F08073136000BF104B1B6803F0007349
:101C0000002BF9D0104B40F205621A600B4A0B4BC7
:101C10009B6823F003039360084A084B9B6843F0DA
:101C20000203936000BF054B9B6803F00C03082B75
:101C3000F9D100BF0C37BD4680BC70470038024068
:101C40000070004008544007003C024080B582B05C
:101C500000AF78607B68604A934208D1012101207F
:101C6000FFF784FD00210120FFF780FDAFE07B68D6
:101C7000B3F1804F08D101210120FFF759FD002168
:101C80000120FFF755FDA2E07B68544A934208D13A
:101C900001210220FFF74CFD00210220FFF748FD43
:101CA00095E07B684E4A934208D101210420FFF75A
:101CB0003FFD00210420FFF73BFD88E07B68494A97
:101CC000934208D101210820FFF732FD00210820AE
:101CD000FFF72EFD7BE07B68434A934208D1012148
:101CE0001020FFF725FD00211020FFF721FD6EE0F9
:101CF0007B683E4A934208D101212020FFF718FD5E
:101D000000212020FFF714FD61E07B68384A9342F0
:101D100008D101210220FFF729FD00210220FFF751
:101D200025FD54E07B68334A93420AD101214FF4E8
:101D30008030FFF71BFD00214FF48030FFF716FDC8
:101D400045E07B682C4A93420AD101214FF40030D0
:101D5000FFF70CFD00214FF40030FFF707FD36E0E0
:101D60007B68264A93420AD101214FF48020FFF775
:101D7000FDFC00214FF48020FFF7F8FC27E07B6892
:101D80001F4A934208D101214020FFF7D1FC0021D6
:101D90004020FFF7CDFC1AE07B681A4A934208D135
:101DA00001218020FFF7C4FC00218020FFF7C0FC48
:101DB0000DE07B68144A934209D101214FF48070F1
:101DC000FFF7B6FC00214FF48070FFF7B1FC00BFB5
:101DD0000837BD4680BD00BF000001400004004040
:101DE00000080040000C00400010004000140040BB
:101DF000000401400040014000440140004801400F
:101E000000180040001C00400020004080B485B055
:101E100000AF786039600023FB817B681B88FB8101
:101E20007B68284A934213D07B68274A93420FD09D
:101E30007B68B3F1804F0BD07B68244A934207D074
:101E40007B68234A934203D07B68224A934208D19D
:101E5000FB8923F07003FB813B685A88FB8913439D
:101E6000FB817B681C4A93420CD07B681B4A9342DF
:101E700008D0FB8923F44073FB813B681A89FB89F6
:101E80001343FB817B68FA891A803B685A687B6838
:101E9000DA623B681A887B681A857B68094A934234
:101EA00003D07B68084A934204D13B689B7A9AB27C
:101EB0007B681A867B6801229A8200BF1437BD4670
:101EC00080BC704700000140000401400004004055
:101ED00000080040000C00400010004000140040CA
:101EE00080B483B000AF78607B684FF0FF325A60F7
:101EF0007B6800221A807B6800221A817B6800229E
:101F00005A807B6800229A7200BF0C37BD4680BCA5
:101F1000704700BF80B483B000AF78600B467B8011
:101F200013463B807B687A881A857B683A889A8258
:101F300000BF0C37BD4680BC704700BF80B485B081
:101F400000AF78600B467B800023FB817B681B8899
:101F5000FB81FB8923F07003FB81FA897B881343A3
:101F6000FB817B68FA891A8000BF1437BD4680BCAC
:101F7000704700BF80B483B000AF786039607B6881
:101F80003A685A6200BF0C37BD4680BC704700BF3C
:101F900080B483B000AF786039607B683A68DA62F9
:101FA00000BF0C37BD4680BC704700BF80B483B013
:101FB00000AF78607B685B6A18460C37BD4680BC12
:101FC000704700BF80B483B000AF78607B681B8D22
:101FD0009BB218460C37BD4680BC704780B483B0B6
:101FE00000AF78600B46FB70FB78002B08D07B6855
:101FF0001B889BB243F002039AB27B681A8007E009
:102000007B681B889BB223F002039AB27B681A801C
:1020100000BF0C37BD4680BC704700BF80B483B0A2
:1020200000AF78600B467B807B88002B08D07B68F4
:102030001B889BB243F004039AB27B681A8007E0C6
:102040007B681B889BB223F004039AB27B681A80DA
:1020500000BF0C37BD4680BC704700BF80B483B062
:1020600000AF78600B46FB70FB78002B08D07B68D4
:102070001B889BB243F080039AB27B681A8007E00A
:102080007B681B889BB223F080039AB27B681A801E
:1020900000BF0C37BD4680BC704700BF80B483B022
:1020A00000AF78600B467B807B681B889BB223F077
:1020B00008039AB27B681A807B681B889AB27B8877
:1020C00013439AB27B681A8000BF0C37BD4680BCB0
:1020D000704700BF80B483B000AF78600B467B8050
:1020E0007B681B889BB223F440739AB27B681A808A
:1020F0007B681B889AB27B8813439AB27B681A80EC
:1021000000BF0C37BD4680BC704700BF80B483B0B1
:1021100000AF78600B46FB70FB78002B08D07B6823
:102120001B889BB243F001039AB27B681A8007E0D8
:102130007B681B889BB223F001039AB27B681A80EC
:1021400000BF0C37BD4680BC704700BF80B485B06F
:1021500000AF7860396000237B810023FB8100237E
:10216000BB817B681B8C9BB223F001039AB27B6816
:102170001A847B681B8CFB817B689B88BB817B6896
:102180001B8B7B817B8923F070037B817B8923F010
:1021900003037B813B681A887B8913437B81FB891E
:1021A00023F00203FB813B689A89FB891343FB817F
:1021B0003B685A88FB891343FB817B681E4A934224
:1021C00003D07B681D4A934223D1FB8923F0080387
:1021D000FB813B68DA89FB891343FB81FB8923F090
:1021E0000403FB813B689A88FB891343FB81BB890D
:1021F00023F48073BB81BB8923F40073BB813B68EC
:102200001A8ABB891343BB813B685A8ABB89134333
:10221000BB817B68BA899A807B687A891A833B681C
:102220009A687B685A637B68FA891A8400BF1437FE
:10223000BD4680BC704700BF000001400004014063
:1022400080B485B000AF7860396000237B810023C3
:10225000FB810023BB817B681B8C9BB223F01003A6
:102260009AB27B681A847B681B8CFB817B689B8895
:10227000BB817B681B8B7B817B8923F4E0437B8163
:102280007B8923F440737B813B681B881B029AB2D5
:102290007B8913437B81FB8923F02003FB813B680F
:1022A0009B891B019AB2FB891343FB813B685B88C6
:1022B0001B019AB2FB891343FB817B68224A93423C
:1022C00003D07B68214A93422BD1FB8923F0800302
:1022D000FB813B68DB891B019AB2FB891343FB81BD
:1022E000FB8923F04003FB813B689B881B019AB26A
:1022F000FB891343FB81BB8923F48063BB81BB89CA
:1023000023F40063BB813B681B8A9B009AB2BB89A4
:102310001343BB813B685B8A9B009AB2BB89134322
:10232000BB817B68BA899A807B687A891A833B680B
:102330009A687B689A637B68FA891A8400BF1437AD
:10234000BD4680BC704700BF000001400004014052
:1023500080B485B000AF7860396000237B810023B2
:10236000FB810023BB817B681B8C9BB223F48073B1
:102370009AB27B681A847B681B8CFB817B689B8884
:10238000BB817B689B8B7B817B8923F070037B8186
:102390007B8923F003037B813B681A887B89134385
:1023A0007B81FB8923F40073FB813B689B891B02C3
:1023B0009AB2FB891343FB813B685B881B029AB28C
:1023C000FB891343FB817B68224A934203D07B68DD
:1023D000214A93422BD1FB8923F40063FB813B68A4
:1023E000DB891B029AB2FB891343FB81FB8923F42F
:1023F0008063FB813B689B881B029AB2FB89134375
:10240000FB81BB8923F48053BB81BB8923F4005338
:10241000BB813B681B8A1B019AB2BB891343BB81FA
:102420003B685B8A1B019AB2BB891343BB817B6803
:10243000BA899A807B687A899A833B689A687B68B4
:10244000DA637B68FA891A8400BF1437BD4680BC02
:10245000704700BF000001400004014080B485B017
:1024600000AF786039600023BB8100237B810023AB
:10247000FB817B681B8C9BB223F480539AB27B68F0
:102480001A847B681B8C7B817B689B88FB817B68C3
:102490009B8BBB81BB8923F4E043BB81BB8923F4C5
:1024A0004073BB813B681B881B029AB2BB891343F4
:1024B000BB817B8923F400537B813B689B891B0391
:1024C0009AB27B8913437B813B685B881B039AB27A
:1024D0007B8913437B817B68114A934203D07B68DD
:1024E000104A93420AD1FB8923F48043FB813B6865
:1024F0001B8A9B019AB2FB891343FB817B68FA8993
:102500009A807B68BA899A833B689A687B681A6468
:102510007B687A891A8400BF1437BD4680BC704737
:10252000000001400004014080B483B000AF786037
:102530007B6800221A807B6800225A807B68002218
:102540009A807B6800229A607B6800229A817B686F
:102550000022DA817B6800221A827B6800225A827C
:1025600000BF0C37BD4680BC704700BF80B485B04B
:1025700000AF78600B467B8013463B800023FB60F6
:1025800000237B817B68FB60FB681833FB607B88E2
:10259000012202FA03F37B817B681B8C9AB27B8950
:1025A000DB439BB213409AB27B681A847B88002B72
:1025B00002D07B88082B14D17B885B089BB21A461B
:1025C000FB681344FB60FA68FB6819684FF68F7369
:1025D0000B401360FB68FA6811683A880A431A6076
:1025E00017E07B88043B9BB25B089BB21A46FB68F2
:1025F0001344FB60FA68FB68196848F6FF730B40E8
:102600001360FB68FA6812683988090289B20A43C4
:102610001A6000BF1437BD4680BC704780B483B0D9
:1026200000AF786039607B683A685A6300BF0C3746
:10263000BD4680BC704700BF80B483B000AF7860F7
:1026400039607B683A689A6300BF0C37BD4680BC2E
:10265000704700BF80B483B000AF786039607B689A
:102660003A68DA6300BF0C37BD4680BC704700BFD4
:1026700080B483B000AF786039607B683A681A64D0
:1026800000BF0C37BD4680BC704700BF80B485B02A
:1026900000AF78600B467B800023FB817B681B8B3F
:1026A000FB81FB8923F07003FB81FA897B8813434C
:1026B000FB817B68FA891A8300BF1437BD4680BC52
:1026C000704700BF80B485B000AF78600B467B8058
:1026D0000023FB817B681B8BFB81FB8923F4E04398
:1026E000FB817B881B029AB2FB891343FB817B68C9
:1026F000FA891A8300BF1437BD4680BC704700BFFB
:1027000080B485B000AF78600B467B800023FB81EE
:102710007B689B8BFB81FB8923F07003FB81FA892B
:102720007B881343FB817B68FA899A8300BF143747
:10273000BD4680BC704700BF80B485B000AF7860F4
:102740000B467B800023FB817B689B8BFB81FB8995
:1027500023F4E043FB817B881B029AB2FB8913437D
:10276000FB817B68FA899A8300BF1437BD4680BC21
:10277000704700BF80B485B000AF78600B467B80A7
:102780000023FB817B681B8BFB81FB8923F0080303
:10279000FB81FA897B881343FB817B68FA891A8362
:1027A00000BF1437BD4680BC704700BF80B485B001
:1027B00000AF78600B467B800023FB817B681B8B1E
:1027C000FB81FB8923F40063FB817B881B029AB2A7
:1027D000FB891343FB817B68FA891A8300BF143796
:1027E000BD4680BC704700BF80B485B000AF786044
:1027F0000B467B800023FB817B689B8BFB81FB89E5
:1028000023F00803FB81FA897B881343FB817B68F3
:10281000FA899A8300BF1437BD4680BC704700BF59
:1028200080B485B000AF78600B467B800023FB81CD
:102830007B689B8BFB81FB8923F40063FB817B8896
:102840001B029AB2FB891343FB817B68FA899A8346
:1028500000BF1437BD4680BC704700BF80B485B050
:1028600000AF78600B467B800023FB817B681B8B6D
:10287000FB81FB8923F00403FB81FA897B881343E6
:10288000FB817B68FA891A8300BF1437BD4680BC80
:10289000704700BF80B485B000AF78600B467B8086
:1028A0000023FB817B681B8BFB81FB8923F4806306
:1028B000FB817B881B029AB2FB891343FB817B68F7
:1028C000FA891A8300BF1437BD4680BC704700BF29
:1028D00080B485B000AF78600B467B800023FB811D
:1028E0007B689B8BFB81FB8923F00403FB81FA89C6
:1028F0007B881343FB817B68FA899A8300BF143776
:10290000BD4680BC704700BF80B485B000AF786022
:102910000B467B800023FB817B689B8BFB81FB89C3
:1029200023F48063FB817B881B029AB2FB891343EB
:10293000FB817B68FA899A8300BF1437BD4680BC4F
:10294000704700BF80B485B000AF78600B467B80D5
:102950000023FB817B681B8BFB81FB8923F08003B9
:10296000FB81FA897B881343FB817B68FA891A8390
:1029700000BF1437BD4680BC704700BF80B485B02F
:1029800000AF78600B467B800023FB817B681B8B4C
:10299000FB81FB89C3F30E03FB817B881B029AB288
:1029A000FB891343FB817B68FA891A8300BF1437C4
:1029B000BD4680BC704700BF80B485B000AF786072
:1029C0000B467B800023FB817B689B8BFB81FB8913
:1029D00023F08003FB81FA897B881343FB817B68AA
:1029E000FA899A8300BF1437BD4680BC704700BF88
:1029F00080B485B000AF78600B467B800023FB81FC
:102A00007B689B8BFB81FB89C3F30E03FB817B8877
:102A10001B029AB2FB891343FB817B68FA899A8374
:102A200000BF1437BD4680BC704700BF80B485B07E
:102A300000AF78600B467B800023FB817B681B8C9A
:102A4000FB81FB8923F00203FB81FA897B88134316
:102A5000FB817B68FA891A8400BF1437BD4680BCAD
:102A6000704700BF80B485B000AF78600B467B80B4
:102A70000023FB817B681B8CFB81FB8923F008030F
:102A8000FB81FA897B881343FB817B68FA891A846E
:102A900000BF1437BD4680BC704700BF80B485B00E
:102AA00000AF78600B467B800023FB817B681B8C2A
:102AB000FB81FB8923F02003FB817B881B019AB2F9
:102AC000FB891343FB817B68FA891A8400BF1437A2
:102AD000BD4680BC704700BF80B485B000AF786051
:102AE0000B467B800023FB817B681B8CFB81FB8971
:102AF00023F08003FB817B881B019AB2FB8913437F
:102B0000FB817B68FA891A8400BF1437BD4680BCFC
:102B1000704700BF80B485B000AF78600B467B8003
:102B20000023FB817B681B8CFB81FB8923F40073F2
:102B3000FB817B881B029AB2FB891343FB817B6874
:102B4000FA891A8400BF1437BD4680BC704700BFA5
:102B500080B485B000AF78600B467B800023FB819A
:102B60007B681B8CFB81FB8923F40063FB817B88E2
:102B70001B029AB2FB891343FB817B68FA891A8492
:102B800000BF1437BD4680BC704700BF80B485B01D
:102B900000AF78600B467B800023FB817B681B8C39
:102BA000FB81FB8923F40053FB817B881B039AB2D2
:102BB000FB891343FB817B68FA891A8400BF1437B1
:102BC000BD4680BC704700BF80B485B000AF786060
:102BD0000B467B8013463B800023FB817B880122D0
:102BE00002FA03F3FB817B681B8C9AB2FB89DB43FF
:102BF0009BB213409AB27B681A847B681B8C9AB292
:102C000039887B8801FA03F39BB213439AB27B683D
:102C10001A8400BF1437BD4680BC704780B485B0AD
:102C200000AF78600B467B8013463B800023FB811E
:102C30007B88042202FA03F3FB817B681B8C9AB227
:102C4000FB89DB439BB213409AB27B681A847B6892
:102C50001B8C9AB239887B8801FA03F39BB2134329
:102C60009AB27B681A8400BF1437BD4680BC704797
:102C700080B582B000AF786039603B681B88002B5C
:102C80000FD13B6859883B689A883B681B897868F4
:102C900000F0B4FC3B68DB881946786800F0E0F887
:102CA00036E03B681B88042B0FD13B6859883B6892
:102CB0009A883B681B89786800F0E2FC3B68DB88F7
:102CC0001946786800F0E8F822E03B681B88082B7A
:102CD0000FD13B6859883B689A883B681B897868A4
:102CE00000F01AFD3B68DB881946786800F0F2F8BE
:102CF0000EE03B6859883B689A883B681B89786876
:102D000000F052FD3B68DB881946786800F0FEF859
:102D100000BF0837BD4680BD80B483B000AF786087
:102D20007B6800221A807B6800225A807B6801221F
:102D30009A807B680022DA807B6800221A8100BFBB
:102D40000C37BD4680BC704780B584B000AF78605A
:102D500039600023FB810123BB813B685B88002B2A
:102D600002D10223FB8101E00023FB813B689B88A9
:102D7000012B02D10223BB8101E00123BB813B680F
:102D80001B88002B1CD13B6859883B689A883B689C
:102D90001B89786800F032FC3B68DB88194678684C
:102DA00000F05EF83B681B89BA89F989786800F001
:102DB00067FC3B68DB881946786800F06DF81BE01B
:102DC0003B6859883B689A883B681B89786800F0A3
:102DD00057FC3B68DB881946786800F05DF83B6873
:102DE0001B89BA89F989786800F008FC3B68DB88A0
:102DF0001946786800F034F800BF1037BD4680BD32
:102E000080B483B000AF78607B685B6B18460C378A
:102E1000BD4680BC704700BF80B483B000AF78600F
:102E20007B689B6B18460C37BD4680BC704700BF63
:102E300080B483B000AF78607B68DB6B18460C37DA
:102E4000BD4680BC704700BF80B483B000AF7860DF
:102E50007B681B6C18460C37BD4680BC704700BFB2
:102E600080B483B000AF78600B467B807B681B8B9F
:102E70009BB223F00C039AB27B681A837B681B8B8E
:102E80009AB27B8813439AB27B681A8300BF0C37CF
:102E9000BD4680BC704700BF80B483B000AF78608F
:102EA0000B467B807B681B8B9BB223F440639AB2FA
:102EB0007B681A837B681B8B9AB27B881B029BB250
:102EC00013439AB27B681A8300BF0C37BD4680BC9F
:102ED000704700BF80B483B000AF78600B467B8042
:102EE0007B689B8B9BB223F00C039AB27B689A831E
:102EF0007B689B8B9AB27B8813439AB27B689A83D8
:102F000000BF0C37BD4680BC704700BF80B483B0A3
:102F100000AF78600B467B807B689B8B9BB223F471
:102F200040639AB27B689A837B689B8B9AB27B885A
:102F30001B029BB213439AB27B689A8300BF0C3783
:102F4000BD4680BC704700BF80B483B000AF7860DE
:102F500039603B681A883B685B8813439AB23B68C8
:102F60009B8813439AB23B68DB8813439AB23B6851
:102F70001B8913439AB23B685B8913439AB23B683F
:102F80009B8913439AB27B68A3F8442000BF0C3797
:102F9000BD4680BC704700BF80B483B000AF78608E
:102FA0007B6800221A807B6800225A807B6800229E
:102FB0009A807B680022DA807B6800221A817B6815
:102FC00000225A817B6800229A8100BF0C37BD46DF
:102FD00080BC704780B483B000AF78600B46FB7054
:102FE000FB78002B0CD07B68B3F844309BB26FEABF
:102FF00043436FEA53439AB27B68A3F8442009E045
:103000007B68B3F844309BB2C3F30E039AB27B687B
:10301000A3F8442000BF0C37BD4680BC704700BFFA
:1030200080B483B000AF78600B46FB70FB78002B58
:1030300008D07B689B889BB243F004039AB27B68FC
:103040009A8007E07B689B889BB223F004039AB2C6
:103050007B689A8000BF0C37BD4680BC704700BFBC
:1030600080B483B000AF78600B46FB70FB78002B18
:1030700008D07B689B889BB243F001039AB27B68BF
:103080009A8007E07B689B889BB223F001039AB289
:103090007B689A8000BF0C37BD4680BC704700BF7C
:1030A00080B483B000AF78600B467B8013467B70A2
:1030B0007B78002B08D07B689B899AB27B8813436E
:1030C0009AB27B689A8109E07B689B899AB27B8877
:1030D000DB439BB213409AB27B689A8100BF0C37E6
:1030E000BD4680BC704700BF80B483B000AF78603D
:1030F0000B467B807B687A889A8200BF0C37BD467E
:1031000080BC704780B485B000AF78600B467B8090
:103110000023FB737B681B8A9AB27B8813409BB2A7
:10312000002B02D00123FB7301E00023FB73FB7B28
:1031300018461437BD4680BC704700BF80B483B0CA
:1031400000AF78600B467B807B88DB439AB27B685C
:103150001A8200BF0C37BD4680BC704780B485B072
:1031600000AF78600B467B800023FB730023BB819C
:1031700000237B817B681B8A9AB27B881340BB81CA
:103180007B689B899AB27B8813407B81BB89002B2B
:1031900005D07B89002B02D00123FB7301E00023C3
:1031A000FB73FB7B18461437BD4680BC704700BFDD
:1031B00080B483B000AF78600B467B807B88DB43B4
:1031C0009AB27B681A8200BF0C37BD4680BC70473C
:1031D00080B483B000AF78600B467B8013463B80A1
:1031E0007A883B8813439AB27B68A3F8482000BFD3
:1031F0000C37BD4680BC704780B483B000AF7860A8
:103200000B467B8013467B707B78002B08D07B6855
:103210009B899AB27B8813439AB27B689A8109E0B2
:103220007B689B899AB27B88DB439BB213409AB23E
:103230007B689A8100BF0C37BD4680BC704700BFD9
:1032400080B483B000AF78600B46FB70FB78002B36
:1032500008D07B689B889BB243F008039AB27B68D6
:103260009A8007E07B689B889BB223F008039AB2A0
:103270007B689A8000BF0C37BD4680BC704700BF9A
:1032800080B483B000AF78607B681B899BB223F069
:1032900007039AB27B681A8100BF0C37BD4680BC19
:1032A000704700BF80B582B000AF78600B467B806E
:1032B0007B881946786800F08BF87B681B899BB285
:1032C00043F007039AB27B681A8100BF0837BD46F6
:1032D00080BD00BF80B584B000AFF86008461146DD
:1032E0001A4603467B810B463B811346FB807B8954
:1032F000602B06D1FB8839890122F86800F0C0F9FB
:1033000005E0FB8839890122F86800F077F97B89AC
:103310001946F86800F05CF8FB681B899BB243F023
:1033200007039AB2FB681A8100BF1037BD4680BD03
:1033300080B586B000AFF860084611461A460346CD
:103340007B810B463B811346FB800023FB82FB887D
:103350003A897989F86800F0ABF8FB681B89FB8231
:10336000FB8A23F00703FB82FB8A43F00703FB82FF
:10337000FB8A23F07003FB82FB8A43F07003FB821D
:10338000FB68FA8A1A8100BF1837BD4680BD00BFAE
:1033900080B584B000AFF860084611461A4603466F
:1033A0007B810B463B811346FB80FB883A897989F8
:1033B000F86800F07DF8FB681B899BB243F48043FA
:1033C0009AB2FB681A8100BF1037BD4680BD00BFAE
:1033D00080B485B000AF78600B467B800023FB8112
:1033E0007B681B89FB81FB8923F07003FB81FA89D1
:1033F0007B881343FB817B68FA891A8100BF1437ED
:10340000BD4680BC704700BF80B483B000AF786019
:103410000B467B807B689B889BB223F070039AB23B
:103420007B689A807B689B889AB27B8813439AB2A8
:103430007B689A8000BF0C37BD4680BC704700BFD8
:1034400080B483B000AF78600B467B807B681B89BB
:103450009BB223F007039AB27B681A817B681B89B1
:103460009AB27B8813439AB27B681A8100BF0C37EB
:10347000BD4680BC704700BF80B483B000AF7860A9
:103480000B467B807B681B899BB223F080039AB23A
:103490007B681A817B681B899AB27B8813439AB236
:1034A0007B681A8100BF0C37BD4680BC704700BFE7
:1034B00080B487B000AFF860084611461A4603464C
:1034C0007B810B463B811346FB800023FB82FB681C
:1034D0001B89FB82FB8ADBB2FB82FB881B029AB250
:1034E0003B8913439AB27B8913439AB2FB8A1343F5
:1034F000FB82FB68FA8A1A8100BF1C37BD4680BC7C
:10350000704700BF80B487B000AFF860084611462E
:103510001A4603467B810B463B811346FB80002302
:10352000FB820023BB8200237B82FB681B89FB821A
:10353000FB681B8BBB82FB681B8C7B82FB8A23F0A6
:103540000703FB82FA8A7B891343FB82BB8A23F43D
:10355000407323F00303BB82BB8A43F4807343F0C0
:103560000103BB827B8A23F022037B82FB881B0141
:103570009AB23B8913439AB27B8A13437B82FB68DE
:10358000FA8A1A81FB68BA8A1A83FB687A8A1A84D3
:1035900000BF1C37BD4680BC704700BF80B483B0FD
:1035A00000AF78600B46FB70FB78002B08D07B687F
:1035B0009B889BB243F080039AB27B689A8007E0B5
:1035C0007B689B889BB223F080039AB27B689A80C9
:1035D00000BF0C37BD4680BC704700BF80B483B0CD
:1035E00000AF78600B467B807B687A88A3F8502018
:1035F00000BF0C37BD4680BC704700BF80B487B0A9
:1036000000AFF860084611461A4603467B810B4618
:103610003B811346FB800023FB820023BB82FB68B7
:103620001B8C9BB223F001039AB2FB681A84FB68DF
:103630001B8BFB82FB681B8CBB82FB8A23F0F30392
:10364000FB82FB881B019AB23B8913439AB2FB8A27
:103650001343FB82BB8A23F00A03BB827A89BB8AAD
:1036600013439BB243F00103BB82FB68FA8A1A83BF
:10367000FB68BA8A1A8400BF1C37BD4680BC7047FD
:1036800080B487B000AFF860084611461A4603467A
:103690007B810B463B811346FB800023FB8200238A
:1036A000BB8200237B82FB681B8C9BB223F0100340
:1036B0009AB2FB681A84FB681B8BFB82FB681B8C2D
:1036C000BB827B891B017B82FB8A23F440731B0531
:1036D0001B0DFB82FB881B039AB2FB8A1343FB8200
:1036E0003B891B029AB2FB8A1343FB82BB8A23F0FD
:1036F000A003BB827A8ABB8A13439BB243F01003B8
:10370000BB82FB68FA8A1A83FB68BA8A1A8400BFF4
:103710001C37BD4680BC704780B487B000AFF860EE
:10372000084611461A4603467B810B463B811346E9
:10373000FB800023FB820023BB8200237B82FB688B
:103740001B8C9BB223F480739AB2FB681A84FB68CB
:103750009B8BFB82FB681B8CBB827B891B027B8261
:10376000FB8A23F0F303FB82FB881B019AB23B899F
:1037700013439AB2FB8A1343FB82BB8A23F4206370
:10378000BB827A8ABB8A13439BB243F48073BB82A9
:10379000FB68FA8A9A83FB68BA8A1A8400BF1C37CE
:1037A000BD4680BC704700BF80B487B000AFF860F2
:1037B000084611461A4603467B810B463B81134659
:1037C000FB800023FB820023BB8200237B82FB68FB
:1037D0001B8C9BB223F480539AB2FB681A84FB685B
:1037E0009B8BFB82FB681B8CBB827B891B037B82D0
:1037F000FB8A23F440731B051B0DFB823B891B02D4
:103800009AB2FB8A1343FB82FB881B039AB2FB8AA2
:103810001343FB82BB8A23F400535B045B0CBB8223
:103820007A8ABB8A13439BB243F48053BB82FB6802
:10383000FA8A9A83FB68BA8A1A8400BF1C37BD468D
:1038400080BC704780B582B000AF01210120FDF738
:10385000F7FE01210220FDF7F3FE01211120FDF703
:1038600077FE01210420FDF773FE01210220FDF700
:103870006FFE4FF4A0633B6002233B7103237B7117
:103880000023BB710223FB713B4619469448FCF7A9
:103890000BFD4FF400633B6002233B7103237B71FC
:1038A0000023BB710223FB713B4619468D48FCF790
:1038B000FBFC012208218A48FCF760FE01220B2153
:1038C0008848FCF75BFE01220A218548FCF756FE7A
:1038D0004FF4E0733B6002233B7103237B710023B1
:1038E000BB710223FB713B4619467F48FCF7DCFCA9
:1038F000032206217C48FCF741FE032207217A4877
:10390000FCF73CFE032208217748FCF737FE774B93
:103910001B685B0A764AA2FB0323DB099BB2013BCF
:103920009AB2744B1A80744B4FF4FA625A60714B1E
:103930001A88714B1A80704B00221A816E4B00223C
:103940005A806D496D48FEF761FA6D4B60221A800E
:103950006B4B01225A806A4B64229A60684B0022AA
:103960009A8167496548FEF7F1FB08216348FEF735
:1039700001FF63496148FEF763FC08215F48FEF7D9
:1039800015FF5F495D48FEF7E3FC08215B48FEF741
:103990002BFF01215948FEF761FB574B4FF4FA62A8
:1039A0005A60544B1A88544B1A80534B00221A8188
:1039B000514B00225A8050495248FEF727FA504B8B
:1039C00060221A804E4B01225A804D4B64229A602D
:1039D0004B4B00229A814A494A48FEF7B7FB08211F
:1039E0004848FEF7C7FE46494648FEF729FC08212D
:1039F0004448FEF7DBFE42494248FEF7A9FC082195
:103A00004048FEF7F1FE01213E48FEF727FB012169
:103A10003A48FFF7DFFA01213848FEF777FB00222A
:103A200000213648FFF7D0F8002204213348FFF781
:103A3000CBF8002208213148FFF7C6F801213148B0
:103A4000FFF7C8FA01212F48FEF760FB0022002192
:103A50002C48FFF7B9F8002204212A48FFF7B4F8F0
:103A6000002208212748FFF7AFF84FF460433B607E
:103A700001233B710023BB7103237B710223FB7184
:103A80003B4619462048FCF70FFC01210120FDF7B9
:103A90005FFD80233B6001233B710023BB71032347
:103AA0007B710223FB713B4619460D48FCF7FCFB7A
:103AB00001210220FDF74CFD03233B6001233B71F4
:103AC0000023BB7103237B710223FB713B46194624
:103AD0000D48FCF7E9FB00BF0837BD4680BD00BFBD
:103AE00000000240001002400008024010000020C8
:103AF00023B24C003000002088000020000001406C
:103B000094000020000401400004024080B483B00F
:103B100000AF0346FB71084997F907305B09FA7952
:103B200002F01F02012000FA02F241F8232000BF38
:103B30000C37BD4680BC704700E100E080B483B024
:103B400000AF03463960FB7197F90730002B0BDAA1
:103B50000D49FB7903F00F03043B3A68D2B212011E
:103B6000D2B20B441A7609E0084997F907303A684F
:103B7000D2B21201D2B20B4483F8002300BF0C373B
:103B8000BD4680BC704700BF00ED00E000E100E0F2
:103B900080B582B000AF78607B68B3F1807F01D3DD
:103BA000012311E00A4A7B6823F07F43013B536005
:103BB0000F214FF0FF30FFF7C1FF054B00229A6045
:103BC000034B07221A60002318460837BD4680BD04
:103BD00010E000E080B588B000AFFDF713FF404B68
:103BE0001B68404AA2FB03239B091846FFF7D0FF3E
:103BF00001210420FDF7ACFC0723BB6100233B77C8
:103C00000023BB7703237B770123FB7707F118039E
:103C100019463548FCF748FB01210420FDF798FCC4
:103C20003823BB6100233B770023BB7703237B77DB
:103C30000123FB7707F1180319462B48FCF734FBE7
:103C400001210120FDF784FC0C233B6102233B751D
:103C50000023BB7503237B750123FB7507F110035C
:103C600019462248FCF720FB072202211F48FCF7D7
:103C700085FC072203211D48FCF780FC01214FF43D
:103C80000030FDF7BFFC4FF4E1333B600023BB8104
:103C90000C237B8100233B810023FB800023BB801E
:103CA0003B4619461248FCF71BFD2620FFF72EFF66
:103CB000012240F225510E48FDF74CF801210C4835
:103CC000FCF724FE00F0F6FD0A4B1B78184600F0C6
:103CD0005FFF094B1B78184600F01AFEF4E700BF9F
:103CE00010000020D34D6210000802400000024086
:103CF00000440040610000206000002080B584B0D6
:103D000000AF15E18F4B1B688F4A52F82330002B10
:103D100040F0E3808B4B1B6804338B4A52F823300E
:103D20000A2B40F0DA80874B1B680533864A52F82D
:103D300023300D2B40F0D180844B01221A70814B2F
:103D40001B680133804A52F82330DAB2804B1A7074
:103D50007C4B1B6802337C4A52F82330DAB27C4B2E
:103D60005A70784B1B680333774A52F82330DAB223
:103D7000774B9A70734B1B680633724A1360754B0E
:103D80001B68063B734A1360714B1B78DB09DAB280
:103D9000714B1A706E4B5B78DB09DAB26F4B1A709D
:103DA0006D4B1B78012B06D1694B1B785B42DAB255
:103DB0006B4B1A7003E0664B1A78694B1A70674BAD
:103DC0001B78012B06D1624B5B785B42DAB2654B04
:103DD0001A7003E05E4B5A78624B1A70614B1B7885
:103DE00003F07F0213469B00134419465E48FEF71A
:103DF00015FC5C4B1B7803F07F0213469B001344B9
:103E000019465948FEF718FC564B1B7803F07F0201
:103E100013469B00134419465348FEF71BFC504BB6
:103E20001B7803F07F0213469B00134419464F484A
:103E3000FEF7F4FB4A4B1B7803F07F0213469B000E
:103E4000134419464948FEF7F7FB454B1B7803F02E
:103E50007F0213469B00134419464448FEF7FAFBC1
:103E6000434800F0C3F83E4B1B7818463B1D0A221E
:103E7000194601F01FF83B1D184600F0B7F83D4801
:103E800000F0B4F8344B1B7818463B1D0A22194643
:103E900001F010F83B1D184600F0A8F8364800F075
:103EA000A5F8304B1B7818463B1D0A22194601F035
:103EB00001F83B1D184600F099F8304800F096F8DC
:103EC000264B1B7818463B1D0A22194600F0F2FFCC
:103ED0003B1D184600F08AF80CE01A4B1B680133B2
:103EE000184A13601B4B1B68013B1A4A1360244895
:103EF00000F07CF8134B1B68B3F57A7F02D3114BAB
:103F000000221A601F4B1B68B3F57A7F02D31D4B4A
:103F100000221A600F4B1B68391D0A22184600F058
:103F2000C9FF3B1D184600F061F8174800F05EF825
:103F3000084B1B68052B3FF6E5AE00BF1037BD46AA
:103F400080BD00BF70000020CC2700207C00002036
:103F5000C4270020680000206100002060000020CD
:103F600054000020550000200000014000040140E2
:103F7000B84E0008C44E0008D04E0008DC4E0008C1
:103F8000E84E000864000020F04E000898B500AF2D
:103F900040F225511148FCF751FF0346012B1AD17D
:103FA00040F225510D48FCF7A3FF0D4B1C680B4850
:103FB000FCF73CFD03461A460A4B43F824200A4B03
:103FC0001B680133084A1360054B1B680133044A20
:103FD0001360FFF793FE00BF98BD00BF0044004090
:103FE00064000020CC2700206800002080B584B049
:103FF00000AF78600023FB8113E000BF40210E4832
:10400000FCF7F0FE0346002BF8D0FB897A681344D6
:104010001B789BB219460848FCF7F6FCFB89013374
:10402000FB81FB897A6813441B78002BE5D100BF24
:104030001037BD4680BD00BF0044004080B582B04F
:1040400000AF0346FB8000BF40210748FCF7CAFED3
:104050000346002BF8D0FB8819460348FCF7D4FC34
:1040600000BF0837BD4680BD0044004080B500AFAA
:104070000CE00A4B1B680A4AD35C9BB21846FFF758
:10408000DDFF064B1B680133044A1360034B1B68BA
:1040900042F210729342ECD100BF80BD7800002044
:1040A000A800002080B483B000AF0346FB80064A1E
:1040B000FB88138000BF044B1B88002BFBD100BF83
:1040C0000C37BD4680BC70473400002080B485B0FA
:1040D00000AF0A4B1B88B3F57A7F06D2074B1B88CB
:1040E00001339AB2054B1A8002E0044B00221A8079
:1040F00000BF1437BD4680BC704700BF460000209B
:1041000080B500AFA24B1B88002B40F0BE81A14BB5
:104110001B78002B20D1A04B1B78062B02D19D4B86
:1041200001221A709C4B1B780133DAB29A4B1A7039
:104130009A4B1B78002B05D0984B1B78013BDAB2C9
:10414000964B1A70954B1B78002B02D1934B06228D
:104150001A70934B1A221A70924B1A788F4B1B7855
:104160009A420CD08D4B1A788E4B1A708E4B0022CF
:104170001A708E4B1B780133DAB28C4B1A70874B56
:104180001B78013B052B00F2808101A252F823F03D
:10419000A94100081942000887420008F7420008B8
:1041A00067430008074400087A4B1B78002B0FD0A8
:1041B00001217F48FCF742F90346002B08D0774BDA
:1041C00006221A70764B1B789AB2714B1A805CE10A
:1041D000754B1B78002B40F04D8100220021754863
:1041E000FEF7F2FC002208217248FEF7EDFC0122E6
:1041F00004217048FEF7E8FC80216F48FCF778F94D
:1042000001216E48FCF774F902216C48FCF762F951
:10421000654B01221A702DE15E4B1B78002B0ED0EE
:1042200002216348FCF70AF90346002B07D15C4BD7
:104230001B789AB2564B1A80584B01221A705A4B6F
:104240001B78002B40F01881002204215948FEF70A
:10425000BBFC002208215748FEF7B6FC01220021D2
:104260005448FEF7B1FC80215348FCF741F9012185
:104270005248FCF73DF902215048FCF72BF94A4B14
:1042800001221A70F8E0434B1B78002B0FD0042159
:104290004748FCF7D3F80346002B08D03F4B0222D7
:1042A0001A703F4B1B789AB2394B1A80EDE03E4BA7
:1042B0001B78002B40F0E280002204213D48FEF7ED
:1042C00083FC002208213B48FEF77EFC01220021EE
:1042D0003848FEF779FC02213848FCF709F98021BB
:1042E0003548FCF705F901213448FCF7F3F82E4B6B
:1042F00001221A70C2E0274B1B78002B0FD001213E
:104300002B48FCF79BF80346002B08D1234B0322D4
:104310001A70234B1B789AB21D4B1A80B5E0224BC2
:104320001B78002B40F0AC80002200212148FEF7D2
:104330004BFC002204211F48FEF746FC0122082105
:104340001C48FEF741FC02211C48FCF7D1F88021F3
:104350001948FCF7CDF801211848FCF7BBF8124BBF
:1043600001221A708CE00B4B1B78002B28D0022105
:104370000F48FCF763F80346002B21D0074B0422BB
:104380001A70074B1B789AB2014B1A807DE000BF70
:1043900036000020410000203F00002040000020A7
:1043A00024000020430000204200002044000020A0
:1043B00000080240000401400000024000040240E6
:1043C000334B1B78002B5DD1002200213148FEF7D2
:1043D000FBFB002204212F48FEF7F6FB01220821F7
:1043E0002C48FEF7F1FB02212B48FCF781F8012154
:1043F0002948FCF77DF880212848FCF76BF8244B0E
:1044000001221A703EE0264B1B78002B0FD00421AE
:104410002448FCF713F80346002B08D1224B052251
:104420001A70224B1B789AB2214B1A802DE0184B40
:104430001B78002B28D1002200211648FEF7C4FB70
:10444000002208211348FEF7BFFB01220421114876
:10445000FEF7BAFB02211048FCF74AF801210E488A
:10446000FCF746F880210D48FCF734F8084B012290
:104470001A7009E000BF08E000BF06E000BF04E0DA
:1044800000BF02E000BF00E000BF00BF80BD00BF72
:1044900042000020000401400004024000000240ED
:1044A00041000020000802404000002024000020BD
:1044B0003600002080B500AFA84B1B88002B40F0D1
:1044C000D081A74B1B78002B20D1A64B1B78062B45
:1044D00002D1A34B01221A70A24B1B780133DAB22E
:1044E000A04B1A70A04B1B78002B05D09E4B1B785D
:1044F000013BDAB29C4B1A709B4B1B78002B02D10C
:10450000994B06221A70994B1A221A70984B1A78F6
:10451000954B1B789A420CD0934B1A78944B1A7097
:10452000944B00221A70944B1B780133DAB2924BF1
:104530001A708D4B1B78013B052B00F2928101A272
:1045400052F823F05D450008D345000847460008AF
:10455000BD46000833470008D9470008804B1B7848
:10456000002B0FD008218548FBF768FF0346002B7E
:1045700008D07D4B06221A70814B1B789AB2774B7C
:104580001A806EE17B4B1B78002B40F05F8100228C
:1045900000217C48FEF718FB002208217948FEF72D
:1045A00013FB012204217748FEF70EFB4FF4005164
:1045B0007548FBF79DFF4FF480417348FBF798FF68
:1045C0004FF400417048FBF785FF6A4B01221A70D7
:1045D0003CE1634B1B78002B0ED010216748FBF7A2
:1045E0002DFF0346002B07D1654B1B789AB25B4B1E
:1045F0001A805D4B01221A705E4B1B78002B40F035
:104600002781002204215F48FEF7DEFA00220821FC
:104610005C48FEF7D9FA012200215A48FEF7D4FA85
:104620004FF400515848FBF763FF4FF48041564860
:10463000FBF75EFF4FF400415348FBF74BFF4D4B38
:1046400001221A7004E1464B1B78002B0FD0202169
:104650004A48FBF7F3FE0346002B08D0424B0222E8
:104660001A70474B1B789AB23C4B1A80F9E0414BC9
:104670001B78002B40F0EE80002204214148FEF719
:10468000A3FA002208213F48FEF79EFA01220021EA
:104690003C48FEF799FA4FF400413B48FBF728FFEE
:1046A0004FF400513848FBF723FF4FF48041364860
:1046B000FBF710FF2F4B01221A70CBE0284B1B7821
:1046C000002B0FD008212D48FBF7B8FE0346002B26
:1046D00008D1254B03221A70294B1B789AB21F4B25
:1046E0001A80BEE0234B1B78002B40F0B5800022DF
:1046F00000212448FEF768FA002204212148FEF731
:1047000063FA012208211F48FEF75EFA4FF40041C8
:104710001D48FBF7EDFE4FF400511B48FBF7E8FE88
:104720004FF480411848FBF7D5FE124B01221A7056
:1047300092E00B4B1B78002B28D010210F48FBF781
:104740007DFE0346002B21D0074B04221A700C4B30
:104750001B789AB2014B1A8083E000BF380000201A
:104760004A000020480000204900002024000020CA
:104770004C0000204B0000204D00002000080240AB
:10478000280000200000014000040240364B1B7846
:10479000002B63D1002200213448FEF715FA0022D5
:1047A00004213248FEF710FA012208212F48FEF7B3
:1047B0000BFA4FF400412E48FBF79AFE4FF480416C
:1047C0002B48FBF795FE4FF400512948FBF782FE7A
:1047D000254B01221A7041E0264B1B78002B0FD08D
:1047E00020212548FBF72AFE0346002B08D1234B46
:1047F00005221A70224B1B789AB2224B1A8030E0A5
:10480000194B1B78002B2BD1002200211748FEF7F3
:10481000DBF9002208211548FEF7D6F90122042110
:104820001248FEF7D1F94FF400411148FBF760FE42
:104830004FF480410E48FBF75BFE4FF400510C48EB
:10484000FBF748FE084B01221A7009E000BF08E0A0
:1048500000BF06E000BF04E000BF02E000BF00E0D0
:1048600000BF00BF80BD00BF4B0000200000014022
:10487000000402404A0000200008024049000020D5
:10488000280000203800002080B500AF0022002161
:104890000748FEF799F9002204210548FEF794F92C
:1048A000002208210248FEF78FF900BF80BD00BF3B
:1048B0000000014080B582B000AFFEF7C3FF0121C8
:1048C0000820FCF745FE1C233B6000233B710323BB
:1048D0007B710023FB713B4619460C48FBF7E4FC57
:1048E00001210820FCF734FE4FF448633B600023AD
:1048F0003B7103237B710023FB713B461946034840
:10490000FBF7D2FC00BF0837BD4680BD000C02405B
:1049100090B583B000AF0346FB71954B00221A702F
:1049200004219448FBF78AFD03465CB208219148B4
:10493000FBF784FD03465B005BB223435CB21021AE
:104940008C48FBF77BFD03469B005BB223435BB2C5
:10495000DAB2874B1A70FB79012B08D1844B1B7894
:10496000DB43DBB203F00703DAB2814B1A70804BF2
:104970001B78062B03D1804B01221A7026E07C4B5A
:104980001B78022B03D17C4B02221A701EE0784B5D
:104990001B78032B03D1784B03221A7016E0744B5B
:1049A0001B78012B03D1744B04221A700EE0704B5C
:1049B0001B78052B03D1704B05221A7006E06C4B57
:1049C0001B78042B02D16C4B06221A706A4B1A78A2
:1049D0006A4B1B789A4200F0C780674B1A78674B86
:1049E0001A70674B1B8801339AB2654B1A80624B71
:1049F0001B78013B052B00F2B78001A252F823F08F
:104A0000194A0008514A0008894A0008C14A0008AA
:104A1000F94A0008314B0008002200215948FEF7EE
:104A2000D3F8002204215748FEF7CEF80221564859
:104A3000FBF75EFD80215548FBF75AFD0122082156
:104A40005048FEF7C1F801214F48FBF743FD8BE0CA
:104A500001214D48FBF74CFD002200214948FEF79B
:104A6000B3F8002204214748FEF7AEF80221464879
:104A7000FBF73EFD012208214248FEF7A5F8802100
:104A80004248FBF727FD6FE0002208213D48FEF772
:104A90009BF8002200213B48FEF796F802213A4895
:104AA000FBF726FD01213848FBF722FD01220421F6
:104AB0003448FEF789F880213448FBF70BFD53E0BA
:104AC00080213248FBF714FD002200212D48FEF71B
:104AD0007BF8002208212B48FEF776F801212A48AE
:104AE000FBF706FD012204212648FEF76DF802219E
:104AF0002548FBF7EFFC37E0002204212148FEF7B0
:104B000063F8002208211F48FEF75EF880211F4845
:104B1000FBF7EEFC01211C48FBF7EAFC0122002117
:104B20001848FEF751F802211748FBF7D3FC1BE0A9
:104B300002211548FBF7DCFC002204211148FEF796
:104B400043F8002208210F48FEF73EF880210F4865
:104B5000FBF7CEFC012200210A48FEF735F80121BF
:104B60000948FBF7B7FC00BF00BF0C37BD4690BD3E
:104B70007E000020000C02407F0000202D0000205D
:104B800084000020000401400004024000000240B4
:104B900090B583B000AF0346FB719F4B00221A70A3
:104BA00080219E48FBF74AFC03465CB24FF48061CB
:104BB0009A48FBF743FC03465B005BB223435CB2BD
:104BC0004FF400619548FBF739FC03469B005BB24C
:104BD00023435BB2DAB2904B1A70FB79002B08D1F9
:104BE0008D4B1B78DB43DBB203F00703DAB28A4B51
:104BF0001A70894B1B78062B03D1894B01221A703E
:104C000026E0854B1B78022B03D1854B02221A70BC
:104C10001EE0814B1B78032B03D1814B03221A70BA
:104C200016E07D4B1B78012B03D17D4B04221A70BB
:104C30000EE0794B1B78052B03D1794B05221A70B6
:104C400006E0754B1B78042B02D1754B06221A70B7
:104C5000734B1A78734B1B789A4200F0D980704BD3
:104C60001A78704B1A70704B1B8801339AB26E4BD6
:104C70001A806B4B1B78013B052B00F2C98001A207
:104C800052F823F09D4C0008DB4C0008194D000839
:104C9000574D0008954D0008D34D00080022002113
:104CA0006248FDF791FF002204216048FDF78CFF68
:104CB0004FF400415E48FBF71BFC4FF400515C4889
:104CC000FBF716FC012208215848FDF77DFF4FF441
:104CD00080415748FBF7FEFB9AE04FF4804154486F
:104CE000FBF706FC002200215048FDF76DFF002273
:104CF00004214E48FDF768FF4FF400414C48FBF794
:104D0000F7FB012208214948FDF75EFF4FF40051EF
:104D10004748FBF7DFFB7BE0002208214348FDF713
:104D200053FF002200214148FDF74EFF4FF40041A0
:104D30003F48FBF7DDFB4FF480413D48FBF7D8FBD4
:104D4000012204213948FDF73FFF4FF40051384854
:104D5000FBF7C0FB5CE04FF400513548FBF7C8FBA4
:104D6000002200213148FDF72FFF002208212F48A3
:104D7000FDF72AFF4FF480412D48FBF7B9FB0122D4
:104D800004212A48FDF720FF4FF400412848FBF793
:104D9000A1FB3DE0002204212448FDF715FF00227D
:104DA00008212248FDF710FF4FF400512048FBF77F
:104DB0009FFB4FF480411E48FBF79AFB0122002124
:104DC0001A48FDF701FF4FF400411948FBF782FB39
:104DD0001EE04FF400411648FBF78AFB0022042135
:104DE0001248FDF7F1FE002208211048FDF7ECFE05
:104DF0004FF400510E48FBF77BFB012200210B48CA
:104E0000FDF7E2FE4FF480410948FBF763FB00BF6A
:104E100000BF0C37BD4690BD80000020000C024052
:104E2000810000202E0000208200002000000140B0
:104E300000040240F0B5DFF878E0164604460F465D
:104E4000BEE80F008BB06D460FC5BEE80F000FC562
:104E50009EE80300B31E45F8040B222B297022D8CC
:104E60007D1E2846002200E01A46B4FBF6F10AAB8C
:104E700006FB114423440C4613F8283C00F8013F7C
:104E8000531C0029F0D1F954BB184AB1197815F810
:104E9000010F29700134111B8C4203F80109F5DB65
:104EA00038460BB0F0BD002038700BB0F0BD00BF2D
:104EB000FC4E0008FFF7BEBF204C20737065656490
:104EC0003A200000204C206469723A200000000063
:104ED00020522073706565643A20000020522064DF
:104EE00069723A2000000000207374203000000036
:104EF00020656E6420200D0A00000000303132333E
:104F00003435363738396162636465666768696A63
:104F10006B6C6D6E6F707172737475767778797A69
:044F2000000000008D
:104F2400000000000102030401020304060708094B
:104F3400007A030A000000000000000001020304DC
:104F44000607080913002A0013010164646464005D
:0400000508000000EF
:00000001FF
