:020000040800F2
:10000000683F00200D060008610600086106000830
:100010006106000861060008610600080000000093
:100020000000000000000000000000006106000861
:100030006106000800000000610600083541000864
:1000400061060008610600086106000861060008F4
:1000500061060008610600086106000861060008E4
:1000600061060008610600086106000861060008D4
:1000700061060008610600086106000861060008C4
:1000800061060008610600086106000861060008B4
:1000900061060008610600086106000861060008A4
:1000A0006106000861060008610600086106000894
:1000B0006106000861060008610600086106000884
:1000C0006106000861060008610600086106000874
:1000D0006106000861060008F53F00086106000897
:1000E0006106000861060008610600086106000854
:1000F0006106000861060008610600086106000844
:100100006106000861060008610600086106000833
:100110006106000861060008610600086106000823
:100120006106000861060008610600086106000813
:100130006106000861060008610600086106000803
:1001400061060008610600086106000861060008F3
:1001500061060008610600086106000861060008E3
:1001600061060008610600086106000861060008D3
:1001700061060008610600086106000861060008C3
:10018000610600086106000880B582B000AF7860A3
:100190007B683C4A934208D10121012001F06EFAAC
:1001A0000021012001F06AFA68E07B68364A934238
:1001B00008D10121022001F061FA0021022001F0A2
:1001C0005DFA5BE07B68314A934208D1012104204B
:1001D00001F054FA0021042001F050FA4EE07B684F
:1001E0002B4A934208D10121082001F047FA00214F
:1001F000082001F043FA41E07B68264A934208D187
:100200000121102001F03AFA0021102001F036FA05
:1002100034E07B68204A934208D10121202001F07C
:100220002DFA0021202001F029FA27E07B681B4AE3
:10023000934208D10121402001F020FA0021402002
:1002400001F01CFA1AE07B68154A934208D101219B
:10025000802001F013FA0021802001F00FFA0DE058
:100260007B68104A934209D101214FF4807001F05C
:1002700005FA00214FF4807001F000FA00BF083742
:10028000BD4680BD0000024000040240000802405C
:10029000000C02400010024000140240001802400E
:1002A000001C02400020024080B487B000AF78609C
:1002B000396000237B6100233B610023FB60002346
:1002C0007B6176E001227B6902FA03F33B613B68C4
:1002D0001A683B691340FB60FA683B699A4265D132
:1002E0007B681A687B695B00032101FA03F3DB4337
:1002F0001A407B681A607B681A683B681B7919464C
:100300007B695B0001FA03F31A437B681A603B6860
:100310001B79012B03D03B681B79022B2ED17B6804
:100320009A687B695B00032101FA03F3DB431A40FF
:100330007B689A607B689A683B685B7919467B6941
:100340005B0001FA03F31A437B689A607B685A6882
:100350007B699BB2194601238B40DB431A407B68C3
:100360005A607B685B683A68927911467A6992B202
:1003700001FA02F292B21A437B685A607B68DA682B
:100380007B699BB25B00032101FA03F3DB431A4054
:100390007B68DA607B68DA683B68DB7919467B69E1
:1003A0005B0001FA03F31A437B68DA607B6901336F
:1003B0007B617B690F2B85D900BF1C37BD4680BC94
:1003C000704700BF80B483B000AF78607B684FF6A1
:1003D000FF721A607B6800221A717B6800225A71D2
:1003E0007B6800229A717B680022DA7100BF0C37AB
:1003F000BD4680BC704700BF80B485B000AF786058
:100400000B467B804FF48033FB607A88FB68134394
:10041000FB60FA687B68DA617A887B68DA61FA687F
:100420007B68DA617B68DB69FB607B68DB69FB60AA
:1004300000BF1437BD4680BC704700BF80B485B094
:1004400000AF78600B467B800023FB737B681A69E2
:100450007B881340002B02D00123FB7301E00023B3
:10046000FB73FB7B18461437BD4680BC704700BF4A
:1004700080B483B000AF78607B681B699BB218467C
:100480000C37BD4680BC704780B485B000AF786043
:100490000B467B800023FB737B685A697B88134083
:1004A000002B02D00123FB7301E00023FB73FB7BD5
:1004B00018461437BD4680BC704700BF80B483B077
:1004C00000AF78607B685B699BB218460C37BD460D
:1004D00080BC704780B483B000AF78600B467B80EF
:1004E0007B687A881A8300BF0C37BD4680BC704792
:1004F00080B483B000AF78600B467B807B687A88DD
:100500005A8300BF0C37BD4680BC704780B483B0AF
:1005100000AF78600B467B8013467B707B78002BA6
:1005200003D07B687A881A8302E07B687A885A83D2
:1005300000BF0C37BD4680BC704700BF80B483B09D
:1005400000AF78600B467B807A887B685A6100BF79
:100550000C37BD4680BC704780B483B000AF786074
:100560000B467B807B685A697B885A407B685A615E
:1005700000BF0C37BD4680BC704700BF80B485B05B
:1005800000AF78600B467B8013467B700023FB60D6
:100590000023BB607A787B8803F007039B0002FA94
:1005A00003F3FB607B88DB089BB218467B88DB0883
:1005B0009BB21A467B68083253F822207B8803F0EE
:1005C00007039B000F2101FA03F3DB4302EA030157
:1005D0007B6800F1080243F822107B88DB089BB29D
:1005E0001A467B68083253F82220FB681343BB602D
:1005F0007B88DB089BB21A467B680832B96843F8EF
:10060000221000BF1437BD4680BC704780B582B051
:1006100000AF104B7B60104B3B6007E03B681A1D3E
:100620003A607A68111D796012681A603B680B4A5B
:100630009342F3D30C480D494FF000028842B8BFF3
:1006400040F8042BFADB03F061F900BF0837BD4620
:1006500080BD00BF3C4F000800000020300000209B
:1006600080B400AFFEE700003000002068370020B3
:1006700080B582B000AF78607B682C4A934208D185
:100680000121102001F072F80021102001F06EF815
:1006900047E07B68264A93420AD101214FF400309B
:1006A00001F046F800214FF4003001F041F838E045
:1006B0007B68204A93420AD101214FF4802001F047
:1006C00037F800214FF4802001F032F829E07B68F0
:1006D000194A93420AD101214FF4002001F028F871
:1006E00000214FF4002001F023F81AE07B68134A40
:1006F00093420AD101214FF4801001F019F8002132
:100700004FF4801001F014F80BE07B680C4A934220
:1007100007D10121202001F029F80021202001F03B
:1007200025F800BF0837BD4680BD00BF001001405E
:100730000044004000480040004C00400050004091
:100740000014014080B58AB000AF786039600023A2
:100750007B6200233B620023FB610023BB617B685B
:100760001B8A9BB27B627B6A23F440537B623B68AB
:10077000DB881A467B6A13437B627B6A9AB27B688A
:100780001A827B689B899BB27B627B6A23F4B0539D
:1007900023F00C037B623B689A883B681B891343F8
:1007A0009AB23B685B8913439BB21A467B6A134338
:1007B0007B627B6A9AB27B689A817B689B8A9BB2D8
:1007C0007B627B6A23F440737B623B689B891A4699
:1007D0007B6A13437B627B6A9AB27B689A8207F1D9
:1007E0000803184600F0AEFD7B68304A934203D000
:1007F0007B682F4A934202D17B693B6201E03B69EF
:100800003B627B689B899BB21BB2002B0CDA3A6A75
:1008100013469B0013449A001A443B681B685B0014
:10082000B2FBF3F3FB610BE03A6A13469B001344FF
:100830009A001A443B681B689B00B2FBF3F3FB6110
:10084000FB691C4AA2FB03235B091B017B627B6AD9
:100850001B09642202FB03F3FA69D31ABB617B68AC
:100860009B899BB21BB2002B0CDABB69DB003233D5
:10087000104AA2FB03235B0903F007037A6A1343C0
:100880007B620BE0BB691B0132330A4AA2FB0323E4
:100890005B0903F00F037A6A13437B627B6A9AB2A7
:1008A0007B681A8100BF2837BD4680BD001001401B
:1008B000001401401F85EB5180B483B000AF786015
:1008C0007B684FF416521A607B6800229A807B681E
:1008D0000022DA807B6800221A817B680C225A8110
:1008E0007B6800229A8100BF0C37BD4680BC7047F0
:1008F00080B485B000AF786039600023FB607B680E
:100900001B8A9BB2FB60FB6823F47063FB603B684F
:100910001A883B685B8813439AB23B689B881343F1
:100920009AB23B68DB8813439BB21A46FB681343B9
:10093000FB60FB689AB27B681A8200BF1437BD4621
:1009400080BC704780B483B000AF78607B680022C1
:100950001A807B6800225A807B6800229A807B681C
:100960000022DA8000BF0C37BD4680BC704700BF54
:1009700080B483B000AF78600B46FB70FB78002B2F
:1009800008D07B689B899BB243F400539AB27B6882
:100990009A8107E07B689B899BB223F400539AB24B
:1009A0007B689A8100BF0C37BD4680BC704700BF92
:1009B00080B483B000AF78600B46FB707B681B8B04
:1009C0009BB223F0FF039AB27B681A837B681B8B70
:1009D0009AB2FB789BB213439AB27B681A8300BF2A
:1009E0000C37BD4680BC704780B483B000AF7860E0
:1009F0000B46FB70FB78002B0AD07B689B899BB26F
:100A00006FEA43436FEA53439AB27B689A8107E0E7
:100A10007B689B899BB2C3F30E039AB27B689A8171
:100A200000BF0C37BD4680BC704700BF80B483B0A8
:100A300000AF78600B46FB70FB78002B08D07B681A
:100A40009B8A9BB243F400639AB27B689A8207E068
:100A50007B689B8A9BB223F400639AB27B689A827C
:100A600000BF0C37BD4680BC704700BF80B483B068
:100A700000AF78600B467B807B88C3F308039AB293
:100A80007B689A8000BF0C37BD4680BC704700BFB2
:100A900080B483B000AF78607B689B889BB2C3F35F
:100AA00008039BB218460C37BD4680BC704700BF98
:100AB00080B483B000AF78600B46FB707B681B8A04
:100AC0009BB223F00F039AB27B681A827B681B8A61
:100AD0009AB2FB789BB213439AB27B681A8200BF2A
:100AE0000C37BD4680BC704780B483B000AF7860DF
:100AF0000B46FB70FB78002B08D07B689B899BB270
:100B000043F002039AB27B689A8107E07B689B8975
:100B10009BB223F002039AB27B689A8100BF0C3724
:100B2000BD4680BC704700BF80B483B000AF786022
:100B30000B467B807B689B899BB223F400639AB24F
:100B40007B689A817B689B899AB27B8813439AB2AF
:100B50007B689A8100BF0C37BD4680BC704700BFE0
:100B600080B483B000AF78600B467B807B681B8AC3
:100B70009BB223F020039AB27B681A827B681B8A9F
:100B80009AB27B8813439AB27B681A8200BF0C37F3
:100B9000BD4680BC704700BF80B483B000AF7860B2
:100BA0000B46FB70FB78002B08D07B681B8A9BB23E
:100BB00043F480439AB27B681A8207E07B681B8A01
:100BC0009BB223F480439AB27B681A8200BF0C3731
:100BD000BD4680BC704700BF80B483B000AF786072
:100BE0007B689B899BB243F001039AB27B689A8130
:100BF00000BF0C37BD4680BC704700BF80B483B0D7
:100C000000AF78600B46FB70FB78002B08D07B6848
:100C10009B8A9BB243F008039AB27B689A8207E0F2
:100C20007B689B8A9BB223F008039AB27B689A8206
:100C300000BF0C37BD4680BC704700BF80B483B096
:100C400000AF78600B46FB707B681B8B9BB2DBB2FE
:100C50009AB27B681A837B681B8B9AB2FB789BB233
:100C60001B029BB213439AB27B681A8300BF0C37F6
:100C7000BD4680BC704700BF80B483B000AF7860D1
:100C80000B46FB70FB78002B08D07B689B8A9BB2DD
:100C900043F020039AB27B689A8207E07B689B8AC4
:100CA0009BB223F020039AB27B689A8200BF0C3774
:100CB000BD4680BC704700BF80B483B000AF786091
:100CC0000B46FB70FB78002B08D07B689B8A9BB29D
:100CD00043F010039AB27B689A8207E07B689B8A94
:100CE0009BB223F010039AB27B689A8200BF0C3744
:100CF000BD4680BC704700BF80B483B000AF786051
:100D00000B467B807B689B8A9BB223F004039AB2DC
:100D10007B689A827B689B8A9AB27B8813439AB2DB
:100D20007B689A8200BF0C37BD4680BC704700BF0D
:100D300080B483B000AF78600B46FB70FB78002B6B
:100D400008D07B689B8A9BB243F002039AB27B680F
:100D50009A8207E07B689B8A9BB223F002039AB2D7
:100D60007B689A8200BF0C37BD4680BC704700BFCD
:100D700080B483B000AF78600B467B8013467B70F5
:100D80007B78002B08D07B689B8A9AB27B881343C0
:100D90009AB27B689A8209E07B689B8A9AB27B88C8
:100DA000DB439BB213409AB27B689A8200BF0C3738
:100DB000BD4680BC704700BF80B487B000AF78608C
:100DC0000B467B8013467B7000233B610023FB6056
:100DD0000023BB6000237B617B687B617B88DBB287
:100DE0005B09DBB23B617B8803F01F03FB600122E0
:100DF000FB6802FA03F3BB603B69012B03D17B69FB
:100E00000C337B6109E03B69022B03D17B69103312
:100E10007B6102E07B6914337B617B78002B06D019
:100E20007B697A691168BA680A431A6006E07B69CF
:100E30007A691168BA68D2430A401A6000BF1C3749
:100E4000BD4680BC704700BF80B485B000AF7860FD
:100E50000B467B800023FB737B681B889AB27B88E0
:100E600013409BB2002B02D00123FB7301E000234F
:100E7000FB73FB7B18461437BD4680BC704700BF30
:100E800080B483B000AF78600B467B807B88DB4307
:100E90009AB27B681A8000BF0C37BD4680BC704791
:100EA00080B487B000AF78600B467B800023FB6086
:100EB00000237B610023BB600023FB747B88DBB2D3
:100EC0005B09DBB2BB607B8803F01F037B610122FF
:100ED0007B6902FA03F37B61BB68012B07D17B6856
:100EE0009B899BB21A467B6913407B6111E0BB680A
:100EF000022B07D17B681B8A9BB21A467B69134081
:100F00007B6106E07B689B8A9BB21A467B69134033
:100F10007B617B881B0A9BB2FB600122FB6802FAA3
:100F200003F3FB607B681B889BB21A46FB68134087
:100F3000FB607B69002B05D0FB68002B02D00123EE
:100F4000FB7401E00023FB74FB7C18461C37BD4694
:100F500080BC704780B485B000AF78600B467B8062
:100F60000023FB810023BB817B881B0AFB81FB895B
:100F7000012202FA03F3BB81BB89DB439AB27B688F
:100F80001A8000BF1437BD4680BC704780B400AFE4
:100F9000104A104B1B6843F0010313600D4B0022F5
:100FA0009A600C4A0B4B1B6823F0847323F4803344
:100FB0001360084B084A5A60064A064B1B6823F424
:100FC00080231360034B0022DA6000BFBD4680BC63
:100FD000704700BF003802401030002480B483B056
:100FE00000AF0346FB71054B00221A70034AFB79E0
:100FF000137000BF0C37BD4680BC704702380240FA
:1010000080B582B000AF00233B600023FB7100235A
:10101000BB71312000F084FC0346BB713B68013397
:101020003B603B68B3F5A06F02D0BB79002BF0D0DA
:10103000312000F075FC0346002B02D00123FB7128
:1010400001E00023FB71FB7918460837BD4680BDDF
:1010500080B485B000AF0346FB710023FB600A4BF0
:101060001B68FB60FB6823F0F803FB60FB79DB0087
:10107000FA681343FB60044AFB68136000BF14372F
:10108000BD4680BC704700BF0038024080B483B0CA
:1010900000AF0346FB71044AFB79136000BF0C37B5
:1010A000BD4680BC704700BF0000474280B483B09B
:1010B00000AF0346FB710C4B00221A700A4B002252
:1010C0001A70FB79012B02D0042B04D007E0064BE9
:1010D00001221A7003E0044B05221A7000BF00BF02
:1010E0000C37BD4680BC70477038024080B483B076
:1010F00000AF0346FB71044AFB79136000BF0C3755
:10110000BD4680BC704700BF800E474280B485B0AA
:1011100000AFF860B9607A603B600A497B689A0169
:10112000BB681A433B685B08013B1B041A43FB681E
:101130001A43BB691B0613434B6000BF1437BD46FF
:1011400080BC70470038024080B483B000AF0346D3
:10115000FB71044AFB79136000BF0C37BD4680BCAD
:10116000704700BF6000474280B483B000AF786032
:10117000396006497B689A013B681B071343C1F835
:10118000843000BF0C37BD4680BC70470038024039
:1011900080B483B000AF0346FB71044AFB7913604F
:1011A00000BF0C37BD4680BC704700BF6800474297
:1011B00080B483B000AF0346FB71044AFB7913602F
:1011C00000BF0C37BD4680BC704700BF4C00474293
:1011D00080B485B000AF786039600023FB600A4BB3
:1011E0009B68FB60FB6823F0EC63FB607A683B68FC
:1011F0001343FA681343FB60034AFB68936000BF24
:101200001437BD4680BC70470038024080B485B0BA
:1012100000AF786039600023FB600A4B9B68FB607D
:10122000FB6823F07843FB607A683B681343FA68F5
:101230001343FB60034AFB68936000BF1437BD464D
:1012400080BC70470038024080B485B000AF786041
:101250000023FB60094B9B68FB60FB6823F00303E2
:10126000FB60FA687B681343FB60044AFB68936089
:1012700000BF1437BD4680BC704700BF0038024035
:1012800080B400AF044B9B68DBB203F00C03DBB20D
:101290001846BD4680BC70470038024080B485B017
:1012A00000AF78600023FB60094B9B68FB60FB6824
:1012B00023F0F003FB60FA687B681343FB60044A89
:1012C000FB68936000BF1437BD4680BC704700BF09
:1012D0000038024080B485B000AF78600023FB6026
:1012E000094B9B68FB60FB6823F4E053FB60FA68E2
:1012F0007B681343FB60044AFB68936000BF1437AC
:10130000BD4680BC704700BF0038024080B485B045
:1013100000AF78600023FB60094B9B68FB60FB68B3
:1013200023F46043FB607B68DB00FA681343FB60D7
:10133000034AFB68936000BF1437BD4680BC70470A
:101340000038024080B489B000AF78600023BB61F0
:1013500000237B610023FB6102233B610023FB60D0
:101360000223BB60484B9B6803F00C03BB61BB6965
:10137000042B07D0082B09D0002B3FD17B68434AB0
:101380001A603FE07B68424A1A603BE03E4B5B6874
:1013900003F480039B0DFB603B4B5B6803F03F0352
:1013A000BB60FB68002B0DD0394ABB68B2FBF3F27F
:1013B000354B596847F6C0730B409B0903FB02F39A
:1013C000FB610CE0314ABB68B2FBF3F22E4B59686B
:1013D00047F6C0730B409B0903FB02F3FB612A4BEA
:1013E0005B6803F440331B0C01335B003B61FA691B
:1013F0003B69B2FBF3F27B681A6003E07B68234A27
:101400001A6000BF204B9B6803F0F003BB61BB690F
:101410001B09BB611F4ABB6913441B78DBB27B61AC
:101420007B681A687B69DA407B685A60164B9B6858
:1014300003F4E053BB61BB699B0ABB61154ABB69FE
:1014400013441B78DBB27B617B685A687B69DA40A6
:101450007B689A600C4B9B6803F46043BB61BB697B
:101460005B0BBB610B4ABB6913441B78DBB27B612E
:101470007B685A687B69DA407B68DA6000BF243792
:10148000BD4680BC704700BF003802400024F40015
:1014900000127A000000002080B485B000AF7860B0
:1014A0000023FB607B6803F44073B3F5407F11D1E8
:1014B0000F4B9B68FB60FB6823F4F813FB607B68B1
:1014C00023F0704323F44073FA681343FB60084A27
:1014D000FB6893600649064B1A6F7B68C3F30B03E6
:1014E00013430B6700BF1437BD4680BC704700BF75
:1014F0000038024080B483B000AF0346FB71044A59
:10150000FB79136000BF0C37BD4680BC704700BF3D
:101510003C0E474280B483B000AF0346FB71044ADF
:10152000FB79136000BF0C37BD4680BC704700BF1D
:10153000400E474280B483B000AF7860034A7B68B6
:10154000136000BF0C37BD4680BC70475C0147424A
:1015500080B483B000AF78600B46FB70FB78002B43
:1015600006D00949084B1A6B7B6813430B6306E0EE
:101570000549054B1A6B7B68DB4313400B6300BFC7
:101580000C37BD4680BC70470038024080B483B041
:1015900000AF78600B46FB70FB78002B06D0094942
:1015A000084B5A6B7B6813434B6306E00549054BB8
:1015B0005A6B7B68DB4313404B6300BF0C37BD465F
:1015C00080BC70470038024080B483B000AF7860C0
:1015D0000B46FB70FB78002B06D00949084B9A6B31
:1015E0007B6813438B6306E00549054B9A6B7B6868
:1015F000DB4313408B6300BF0C37BD4680BC704794
:101600000038024080B483B000AF78600B46FB70B6
:10161000FB78002B06D00949084B1A6C7B681343F2
:101620000B6406E00549054B1A6C7B68DB431340ED
:101630000B6400BF0C37BD4680BC704700380240C9
:1016400080B483B000AF78600B46FB70FB78002B52
:1016500006D00949084B5A6C7B6813434B6406E07B
:101660000549054B5A6C7B68DB4313404B6400BF54
:101670000C37BD4680BC70470038024080B483B050
:1016800000AF78600B46FB70FB78002B06D0094951
:10169000084B1A697B6813430B6106E00549054B4B
:1016A0001A697B68DB4313400B6100BF0C37BD46F2
:1016B00080BC70470038024080B483B000AF7860CF
:1016C0000B46FB70FB78002B06D00949084B5A6982
:1016D0007B6813434B6106E00549054B5A697B68FB
:1016E000DB4313404B6100BF0C37BD4680BC7047E5
:1016F0000038024080B483B000AF78600B46FB70C6
:10170000FB78002B06D00949084B9A697B68134384
:101710008B6106E00549054B9A697B68DB43134002
:101720008B6100BF0C37BD4680BC7047003802405B
:1017300080B483B000AF78600B46FB70FB78002B61
:1017400006D00949084B1A6A7B6813430B6206E00E
:101750000549054B1A6A7B68DB4313400B6200BFE7
:101760000C37BD4680BC70470038024080B483B05F
:1017700000AF78600B46FB70FB78002B06D0094960
:10178000084B5A6A7B6813434B6206E00549054BD8
:101790005A6A7B68DB4313404B6200BF0C37BD467F
:1017A00080BC70470038024080B483B000AF7860DE
:1017B0000B46FB70FB78002B06D00949084B1A6DCD
:1017C0007B6813430B6506E00549054B1A6D7B6882
:1017D000DB4313400B6500BF0C37BD4680BC704730
:1017E0000038024080B483B000AF78600B46FB70D5
:1017F000FB78002B06D00949084B5A6D7B681343D0
:101800004B6506E00549054B5A6D7B68DB43134089
:101810004B6500BF0C37BD4680BC704700380240A6
:1018200080B483B000AF78600B46FB70FB78002B70
:1018300006D00949084B9A6D7B6813438B6506E017
:101840000549054B9A6D7B68DB4313408B6500BFF0
:101850000C37BD4680BC70470038024080B483B06E
:1018600000AF78600B46FB70FB78002B06D009496F
:10187000084B1A6E7B6813430B6606E00549054B5F
:101880001A6E7B68DB4313400B6600BF0C37BD4606
:1018900080BC70470038024080B483B000AF7860ED
:1018A0000B46FB70FB78002B06D00949084B5A6E9B
:1018B0007B6813434B6606E00549054B5A6E7B680F
:1018C000DB4313404B6600BF0C37BD4680BC7047FE
:1018D0000038024080B483B000AF03460A46FB7173
:1018E0001346BB71BB79002B08D00C490B4B1B78FE
:1018F000DAB2FB791343DBB20B7009E00749074BFF
:101900001B78DAB2FB79DB43DBB21340DBB20B703E
:1019100000BF0C37BD4680BC704700BF0D38024089
:1019200080B487B000AF0346FB710023FB60002347
:101930007B610023FB74FB795B09DBB2FB60FB6816
:10194000012B03D1124B1B687B6109E0FB68022B62
:1019500003D10F4B1B6F7B6102E00D4B5B6F7B6113
:10196000FB7903F01F03FB607A69FB6822FA03F33B
:1019700003F00103002B02D00123FB7401E00023DC
:10198000FB74FB7C18461C37BD4680BC704700BF0B
:101990000038024080B400AF044A044B5B6F43F050
:1019A0008073536700BFBD4680BC7047003802405B
:1019B00080B485B000AF0346FB710023FB73084B76
:1019C000DA68FB791340002B02D00123FB7301E09E
:1019D0000023FB73FB7B18461437BD4680BC704761
:1019E0000038024080B483B000AF0346FB71044A64
:1019F000FB79137000BF0C37BD4680BC704700BF39
:101A00000E38024080B500AF124A124B1B6843F0FB
:101A1000010313600F4B00229A600E4A0D4B1B68A6
:101A200023F0847323F4803313600A4B0A4A5A600C
:101A3000084A084B1B6823F480231360054B0022DF
:101A4000DA6000F089F8054B4FF000629A6000BF41
:101A500080BD00BF003802401030002400ED00E0DF
:101A600080B487B000AF00233B6100237B61022379
:101A7000FB600023BB6002237B60324B9B6803F05A
:101A80000C033B613B69042B07D0082B09D0002BCA
:101A90003FD12D4B2D4A1A603FE02B4B2C4A1A6048
:101AA0003BE0284B5B6803F480039B0DBB60254B38
:101AB0005B6803F03F037B60BB68002B0DD0244ABA
:101AC0007B68B2FBF3F21F4B596847F6C0730B40BB
:101AD0009B0903FB02F37B610CE01C4A7B68B2FBB1
:101AE000F3F2184B596847F6C0730B409B0903FB90
:101AF00002F37B61134B5B6803F440331B0C01332F
:101B00005B00FB607A69FB68B2FBF3F30E4A13607B
:101B100003E00D4B0D4A1A6000BF0A4B9B6803F0AF
:101B2000F0031B090B4AD35CDBB23B61064B1A681E
:101B30003B6922FA03F3044A136000BF1C37BD4619
:101B400080BC704700380240100000200024F400E0
:101B500000127A001400002080B483B000AF00238C
:101B60007B6000233B60354A344B1B6843F4803371
:101B70001360324B1B6803F400333B607B68013316
:101B80007B603B68002B03D17B68B3F5A06FF0D17D
:101B90002A4B1B6803F40033002B02D001233B6067
:101BA00001E000233B603B68012B42D1234A234BD9
:101BB0001B6C43F080531364214A214B1B6843F490
:101BC000804313601D4A1D4B9B6893601B4A1B4B4F
:101BD0009B6843F400439360184A184B9B6843F496
:101BE000A0539360154B174A5A60144A134B1B6855
:101BF00043F08073136000BF104B1B6803F0007349
:101C0000002BF9D0104B40F205621A600B4A0B4BC7
:101C10009B6823F003039360084A084B9B6843F0DA
:101C20000203936000BF054B9B6803F00C03082B75
:101C3000F9D100BF0C37BD4680BC70470038024068
:101C40000070004008544007003C024080B582B05C
:101C500000AF78607B68604A934208D1012101207F
:101C6000FFF784FD00210120FFF780FDAFE07B68D6
:101C7000B3F1804F08D101210120FFF759FD002168
:101C80000120FFF755FDA2E07B68544A934208D13A
:101C900001210220FFF74CFD00210220FFF748FD43
:101CA00095E07B684E4A934208D101210420FFF75A
:101CB0003FFD00210420FFF73BFD88E07B68494A97
:101CC000934208D101210820FFF732FD00210820AE
:101CD000FFF72EFD7BE07B68434A934208D1012148
:101CE0001020FFF725FD00211020FFF721FD6EE0F9
:101CF0007B683E4A934208D101212020FFF718FD5E
:101D000000212020FFF714FD61E07B68384A9342F0
:101D100008D101210220FFF729FD00210220FFF751
:101D200025FD54E07B68334A93420AD101214FF4E8
:101D30008030FFF71BFD00214FF48030FFF716FDC8
:101D400045E07B682C4A93420AD101214FF40030D0
:101D5000FFF70CFD00214FF40030FFF707FD36E0E0
:101D60007B68264A93420AD101214FF48020FFF775
:101D7000FDFC00214FF48020FFF7F8FC27E07B6892
:101D80001F4A934208D101214020FFF7D1FC0021D6
:101D90004020FFF7CDFC1AE07B681A4A934208D135
:101DA00001218020FFF7C4FC00218020FFF7C0FC48
:101DB0000DE07B68144A934209D101214FF48070F1
:101DC000FFF7B6FC00214FF48070FFF7B1FC00BFB5
:101DD0000837BD4680BD00BF000001400004004040
:101DE00000080040000C00400010004000140040BB
:101DF000000401400040014000440140004801400F
:101E000000180040001C00400020004080B485B055
:101E100000AF786039600023FB817B681B88FB8101
:101E20007B68284A934213D07B68274A93420FD09D
:101E30007B68B3F1804F0BD07B68244A934207D074
:101E40007B68234A934203D07B68224A934208D19D
:101E5000FB8923F07003FB813B685A88FB8913439D
:101E6000FB817B681C4A93420CD07B681B4A9342DF
:101E700008D0FB8923F44073FB813B681A89FB89F6
:101E80001343FB817B68FA891A803B685A687B6838
:101E9000DA623B681A887B681A857B68094A934234
:101EA00003D07B68084A934204D13B689B7A9AB27C
:101EB0007B681A867B6801229A8200BF1437BD4670
:101EC00080BC704700000140000401400004004055
:101ED00000080040000C00400010004000140040CA
:101EE00080B483B000AF78607B684FF0FF325A60F7
:101EF0007B6800221A807B6800221A817B6800229E
:101F00005A807B6800229A7200BF0C37BD4680BCA5
:101F1000704700BF80B483B000AF78600B467B8011
:101F200013463B807B687A881A857B683A889A8258
:101F300000BF0C37BD4680BC704700BF80B485B081
:101F400000AF78600B467B800023FB817B681B8899
:101F5000FB81FB8923F07003FB81FA897B881343A3
:101F6000FB817B68FA891A8000BF1437BD4680BCAC
:101F7000704700BF80B483B000AF786039607B6881
:101F80003A685A6200BF0C37BD4680BC704700BF3C
:101F900080B483B000AF786039607B683A68DA62F9
:101FA00000BF0C37BD4680BC704700BF80B483B013
:101FB00000AF78607B685B6A18460C37BD4680BC12
:101FC000704700BF80B483B000AF78607B681B8D22
:101FD0009BB218460C37BD4680BC704780B483B0B6
:101FE00000AF78600B46FB70FB78002B08D07B6855
:101FF0001B889BB243F002039AB27B681A8007E009
:102000007B681B889BB223F002039AB27B681A801C
:1020100000BF0C37BD4680BC704700BF80B483B0A2
:1020200000AF78600B467B807B88002B08D07B68F4
:102030001B889BB243F004039AB27B681A8007E0C6
:102040007B681B889BB223F004039AB27B681A80DA
:1020500000BF0C37BD4680BC704700BF80B483B062
:1020600000AF78600B46FB70FB78002B08D07B68D4
:102070001B889BB243F080039AB27B681A8007E00A
:102080007B681B889BB223F080039AB27B681A801E
:1020900000BF0C37BD4680BC704700BF80B483B022
:1020A00000AF78600B467B807B681B889BB223F077
:1020B00008039AB27B681A807B681B889AB27B8877
:1020C00013439AB27B681A8000BF0C37BD4680BCB0
:1020D000704700BF80B483B000AF78600B467B8050
:1020E0007B681B889BB223F440739AB27B681A808A
:1020F0007B681B889AB27B8813439AB27B681A80EC
:1021000000BF0C37BD4680BC704700BF80B483B0B1
:1021100000AF78600B46FB70FB78002B08D07B6823
:102120001B889BB243F001039AB27B681A8007E0D8
:102130007B681B889BB223F001039AB27B681A80EC
:1021400000BF0C37BD4680BC704700BF80B485B06F
:1021500000AF7860396000237B810023FB8100237E
:10216000BB817B681B8C9BB223F001039AB27B6816
:102170001A847B681B8CFB817B689B88BB817B6896
:102180001B8B7B817B8923F070037B817B8923F010
:1021900003037B813B681A887B8913437B81FB891E
:1021A00023F00203FB813B689A89FB891343FB817F
:1021B0003B685A88FB891343FB817B681E4A934224
:1021C00003D07B681D4A934223D1FB8923F0080387
:1021D000FB813B68DA89FB891343FB81FB8923F090
:1021E0000403FB813B689A88FB891343FB81BB890D
:1021F00023F48073BB81BB8923F40073BB813B68EC
:102200001A8ABB891343BB813B685A8ABB89134333
:10221000BB817B68BA899A807B687A891A833B681C
:102220009A687B685A637B68FA891A8400BF1437FE
:10223000BD4680BC704700BF000001400004014063
:1022400080B485B000AF7860396000237B810023C3
:10225000FB810023BB817B681B8C9BB223F01003A6
:102260009AB27B681A847B681B8CFB817B689B8895
:10227000BB817B681B8B7B817B8923F4E0437B8163
:102280007B8923F440737B813B681B881B029AB2D5
:102290007B8913437B81FB8923F02003FB813B680F
:1022A0009B891B019AB2FB891343FB813B685B88C6
:1022B0001B019AB2FB891343FB817B68224A93423C
:1022C00003D07B68214A93422BD1FB8923F0800302
:1022D000FB813B68DB891B019AB2FB891343FB81BD
:1022E000FB8923F04003FB813B689B881B019AB26A
:1022F000FB891343FB81BB8923F48063BB81BB89CA
:1023000023F40063BB813B681B8A9B009AB2BB89A4
:102310001343BB813B685B8A9B009AB2BB89134322
:10232000BB817B68BA899A807B687A891A833B680B
:102330009A687B689A637B68FA891A8400BF1437AD
:10234000BD4680BC704700BF000001400004014052
:1023500080B485B000AF7860396000237B810023B2
:10236000FB810023BB817B681B8C9BB223F48073B1
:102370009AB27B681A847B681B8CFB817B689B8884
:10238000BB817B689B8B7B817B8923F070037B8186
:102390007B8923F003037B813B681A887B89134385
:1023A0007B81FB8923F40073FB813B689B891B02C3
:1023B0009AB2FB891343FB813B685B881B029AB28C
:1023C000FB891343FB817B68224A934203D07B68DD
:1023D000214A93422BD1FB8923F40063FB813B68A4
:1023E000DB891B029AB2FB891343FB81FB8923F42F
:1023F0008063FB813B689B881B029AB2FB89134375
:10240000FB81BB8923F48053BB81BB8923F4005338
:10241000BB813B681B8A1B019AB2BB891343BB81FA
:102420003B685B8A1B019AB2BB891343BB817B6803
:10243000BA899A807B687A899A833B689A687B68B4
:10244000DA637B68FA891A8400BF1437BD4680BC02
:10245000704700BF000001400004014080B485B017
:1024600000AF786039600023BB8100237B810023AB
:10247000FB817B681B8C9BB223F480539AB27B68F0
:102480001A847B681B8C7B817B689B88FB817B68C3
:102490009B8BBB81BB8923F4E043BB81BB8923F4C5
:1024A0004073BB813B681B881B029AB2BB891343F4
:1024B000BB817B8923F400537B813B689B891B0391
:1024C0009AB27B8913437B813B685B881B039AB27A
:1024D0007B8913437B817B68114A934203D07B68DD
:1024E000104A93420AD1FB8923F48043FB813B6865
:1024F0001B8A9B019AB2FB891343FB817B68FA8993
:102500009A807B68BA899A833B689A687B681A6468
:102510007B687A891A8400BF1437BD4680BC704737
:10252000000001400004014080B483B000AF786037
:102530007B6800221A807B6800225A807B68002218
:102540009A807B6800229A607B6800229A817B686F
:102550000022DA817B6800221A827B6800225A827C
:1025600000BF0C37BD4680BC704700BF80B485B04B
:1025700000AF78600B467B8013463B800023FB60F6
:1025800000237B817B68FB60FB681833FB607B88E2
:10259000012202FA03F37B817B681B8C9AB27B8950
:1025A000DB439BB213409AB27B681A847B88002B72
:1025B00002D07B88082B14D17B885B089BB21A461B
:1025C000FB681344FB60FA68FB6819684FF68F7369
:1025D0000B401360FB68FA6811683A880A431A6076
:1025E00017E07B88043B9BB25B089BB21A46FB68F2
:1025F0001344FB60FA68FB68196848F6FF730B40E8
:102600001360FB68FA6812683988090289B20A43C4
:102610001A6000BF1437BD4680BC704780B483B0D9
:1026200000AF786039607B683A685A6300BF0C3746
:10263000BD4680BC704700BF80B483B000AF7860F7
:1026400039607B683A689A6300BF0C37BD4680BC2E
:10265000704700BF80B483B000AF786039607B689A
:102660003A68DA6300BF0C37BD4680BC704700BFD4
:1026700080B483B000AF786039607B683A681A64D0
:1026800000BF0C37BD4680BC704700BF80B485B02A
:1026900000AF78600B467B800023FB817B681B8B3F
:1026A000FB81FB8923F07003FB81FA897B8813434C
:1026B000FB817B68FA891A8300BF1437BD4680BC52
:1026C000704700BF80B485B000AF78600B467B8058
:1026D0000023FB817B681B8BFB81FB8923F4E04398
:1026E000FB817B881B029AB2FB891343FB817B68C9
:1026F000FA891A8300BF1437BD4680BC704700BFFB
:1027000080B485B000AF78600B467B800023FB81EE
:102710007B689B8BFB81FB8923F07003FB81FA892B
:102720007B881343FB817B68FA899A8300BF143747
:10273000BD4680BC704700BF80B485B000AF7860F4
:102740000B467B800023FB817B689B8BFB81FB8995
:1027500023F4E043FB817B881B029AB2FB8913437D
:10276000FB817B68FA899A8300BF1437BD4680BC21
:10277000704700BF80B485B000AF78600B467B80A7
:102780000023FB817B681B8BFB81FB8923F0080303
:10279000FB81FA897B881343FB817B68FA891A8362
:1027A00000BF1437BD4680BC704700BF80B485B001
:1027B00000AF78600B467B800023FB817B681B8B1E
:1027C000FB81FB8923F40063FB817B881B029AB2A7
:1027D000FB891343FB817B68FA891A8300BF143796
:1027E000BD4680BC704700BF80B485B000AF786044
:1027F0000B467B800023FB817B689B8BFB81FB89E5
:1028000023F00803FB81FA897B881343FB817B68F3
:10281000FA899A8300BF1437BD4680BC704700BF59
:1028200080B485B000AF78600B467B800023FB81CD
:102830007B689B8BFB81FB8923F40063FB817B8896
:102840001B029AB2FB891343FB817B68FA899A8346
:1028500000BF1437BD4680BC704700BF80B485B050
:1028600000AF78600B467B800023FB817B681B8B6D
:10287000FB81FB8923F00403FB81FA897B881343E6
:10288000FB817B68FA891A8300BF1437BD4680BC80
:10289000704700BF80B485B000AF78600B467B8086
:1028A0000023FB817B681B8BFB81FB8923F4806306
:1028B000FB817B881B029AB2FB891343FB817B68F7
:1028C000FA891A8300BF1437BD4680BC704700BF29
:1028D00080B485B000AF78600B467B800023FB811D
:1028E0007B689B8BFB81FB8923F00403FB81FA89C6
:1028F0007B881343FB817B68FA899A8300BF143776
:10290000BD4680BC704700BF80B485B000AF786022
:102910000B467B800023FB817B689B8BFB81FB89C3
:1029200023F48063FB817B881B029AB2FB891343EB
:10293000FB817B68FA899A8300BF1437BD4680BC4F
:10294000704700BF80B485B000AF78600B467B80D5
:102950000023FB817B681B8BFB81FB8923F08003B9
:10296000FB81FA897B881343FB817B68FA891A8390
:1029700000BF1437BD4680BC704700BF80B485B02F
:1029800000AF78600B467B800023FB817B681B8B4C
:10299000FB81FB89C3F30E03FB817B881B029AB288
:1029A000FB891343FB817B68FA891A8300BF1437C4
:1029B000BD4680BC704700BF80B485B000AF786072
:1029C0000B467B800023FB817B689B8BFB81FB8913
:1029D00023F08003FB81FA897B881343FB817B68AA
:1029E000FA899A8300BF1437BD4680BC704700BF88
:1029F00080B485B000AF78600B467B800023FB81FC
:102A00007B689B8BFB81FB89C3F30E03FB817B8877
:102A10001B029AB2FB891343FB817B68FA899A8374
:102A200000BF1437BD4680BC704700BF80B485B07E
:102A300000AF78600B467B800023FB817B681B8C9A
:102A4000FB81FB8923F00203FB81FA897B88134316
:102A5000FB817B68FA891A8400BF1437BD4680BCAD
:102A6000704700BF80B485B000AF78600B467B80B4
:102A70000023FB817B681B8CFB81FB8923F008030F
:102A8000FB81FA897B881343FB817B68FA891A846E
:102A900000BF1437BD4680BC704700BF80B485B00E
:102AA00000AF78600B467B800023FB817B681B8C2A
:102AB000FB81FB8923F02003FB817B881B019AB2F9
:102AC000FB891343FB817B68FA891A8400BF1437A2
:102AD000BD4680BC704700BF80B485B000AF786051
:102AE0000B467B800023FB817B681B8CFB81FB8971
:102AF00023F08003FB817B881B019AB2FB8913437F
:102B0000FB817B68FA891A8400BF1437BD4680BCFC
:102B1000704700BF80B485B000AF78600B467B8003
:102B20000023FB817B681B8CFB81FB8923F40073F2
:102B3000FB817B881B029AB2FB891343FB817B6874
:102B4000FA891A8400BF1437BD4680BC704700BFA5
:102B500080B485B000AF78600B467B800023FB819A
:102B60007B681B8CFB81FB8923F40063FB817B88E2
:102B70001B029AB2FB891343FB817B68FA891A8492
:102B800000BF1437BD4680BC704700BF80B485B01D
:102B900000AF78600B467B800023FB817B681B8C39
:102BA000FB81FB8923F40053FB817B881B039AB2D2
:102BB000FB891343FB817B68FA891A8400BF1437B1
:102BC000BD4680BC704700BF80B485B000AF786060
:102BD0000B467B8013463B800023FB817B880122D0
:102BE00002FA03F3FB817B681B8C9AB2FB89DB43FF
:102BF0009BB213409AB27B681A847B681B8C9AB292
:102C000039887B8801FA03F39BB213439AB27B683D
:102C10001A8400BF1437BD4680BC704780B485B0AD
:102C200000AF78600B467B8013463B800023FB811E
:102C30007B88042202FA03F3FB817B681B8C9AB227
:102C4000FB89DB439BB213409AB27B681A847B6892
:102C50001B8C9AB239887B8801FA03F39BB2134329
:102C60009AB27B681A8400BF1437BD4680BC704797
:102C700080B582B000AF786039603B681B88002B5C
:102C80000FD13B6859883B689A883B681B897868F4
:102C900000F0B4FC3B68DB881946786800F0E0F887
:102CA00036E03B681B88042B0FD13B6859883B6892
:102CB0009A883B681B89786800F0E2FC3B68DB88F7
:102CC0001946786800F0E8F822E03B681B88082B7A
:102CD0000FD13B6859883B689A883B681B897868A4
:102CE00000F01AFD3B68DB881946786800F0F2F8BE
:102CF0000EE03B6859883B689A883B681B89786876
:102D000000F052FD3B68DB881946786800F0FEF859
:102D100000BF0837BD4680BD80B483B000AF786087
:102D20007B6800221A807B6800225A807B6801221F
:102D30009A807B680022DA807B6800221A8100BFBB
:102D40000C37BD4680BC704780B584B000AF78605A
:102D500039600023FB810123BB813B685B88002B2A
:102D600002D10223FB8101E00023FB813B689B88A9
:102D7000012B02D10223BB8101E00123BB813B680F
:102D80001B88002B1CD13B6859883B689A883B689C
:102D90001B89786800F032FC3B68DB88194678684C
:102DA00000F05EF83B681B89BA89F989786800F001
:102DB00067FC3B68DB881946786800F06DF81BE01B
:102DC0003B6859883B689A883B681B89786800F0A3
:102DD00057FC3B68DB881946786800F05DF83B6873
:102DE0001B89BA89F989786800F008FC3B68DB88A0
:102DF0001946786800F034F800BF1037BD4680BD32
:102E000080B483B000AF78607B685B6B18460C378A
:102E1000BD4680BC704700BF80B483B000AF78600F
:102E20007B689B6B18460C37BD4680BC704700BF63
:102E300080B483B000AF78607B68DB6B18460C37DA
:102E4000BD4680BC704700BF80B483B000AF7860DF
:102E50007B681B6C18460C37BD4680BC704700BFB2
:102E600080B483B000AF78600B467B807B681B8B9F
:102E70009BB223F00C039AB27B681A837B681B8B8E
:102E80009AB27B8813439AB27B681A8300BF0C37CF
:102E9000BD4680BC704700BF80B483B000AF78608F
:102EA0000B467B807B681B8B9BB223F440639AB2FA
:102EB0007B681A837B681B8B9AB27B881B029BB250
:102EC00013439AB27B681A8300BF0C37BD4680BC9F
:102ED000704700BF80B483B000AF78600B467B8042
:102EE0007B689B8B9BB223F00C039AB27B689A831E
:102EF0007B689B8B9AB27B8813439AB27B689A83D8
:102F000000BF0C37BD4680BC704700BF80B483B0A3
:102F100000AF78600B467B807B689B8B9BB223F471
:102F200040639AB27B689A837B689B8B9AB27B885A
:102F30001B029BB213439AB27B689A8300BF0C3783
:102F4000BD4680BC704700BF80B483B000AF7860DE
:102F500039603B681A883B685B8813439AB23B68C8
:102F60009B8813439AB23B68DB8813439AB23B6851
:102F70001B8913439AB23B685B8913439AB23B683F
:102F80009B8913439AB27B68A3F8442000BF0C3797
:102F9000BD4680BC704700BF80B483B000AF78608E
:102FA0007B6800221A807B6800225A807B6800229E
:102FB0009A807B680022DA807B6800221A817B6815
:102FC00000225A817B6800229A8100BF0C37BD46DF
:102FD00080BC704780B483B000AF78600B46FB7054
:102FE000FB78002B0CD07B68B3F844309BB26FEABF
:102FF00043436FEA53439AB27B68A3F8442009E045
:103000007B68B3F844309BB2C3F30E039AB27B687B
:10301000A3F8442000BF0C37BD4680BC704700BFFA
:1030200080B483B000AF78600B46FB70FB78002B58
:1030300008D07B689B889BB243F004039AB27B68FC
:103040009A8007E07B689B889BB223F004039AB2C6
:103050007B689A8000BF0C37BD4680BC704700BFBC
:1030600080B483B000AF78600B46FB70FB78002B18
:1030700008D07B689B889BB243F001039AB27B68BF
:103080009A8007E07B689B889BB223F001039AB289
:103090007B689A8000BF0C37BD4680BC704700BF7C
:1030A00080B483B000AF78600B467B8013467B70A2
:1030B0007B78002B08D07B689B899AB27B8813436E
:1030C0009AB27B689A8109E07B689B899AB27B8877
:1030D000DB439BB213409AB27B689A8100BF0C37E6
:1030E000BD4680BC704700BF80B483B000AF78603D
:1030F0000B467B807B687A889A8200BF0C37BD467E
:1031000080BC704780B485B000AF78600B467B8090
:103110000023FB737B681B8A9AB27B8813409BB2A7
:10312000002B02D00123FB7301E00023FB73FB7B28
:1031300018461437BD4680BC704700BF80B483B0CA
:1031400000AF78600B467B807B88DB439AB27B685C
:103150001A8200BF0C37BD4680BC704780B485B072
:1031600000AF78600B467B800023FB730023BB819C
:1031700000237B817B681B8A9AB27B881340BB81CA
:103180007B689B899AB27B8813407B81BB89002B2B
:1031900005D07B89002B02D00123FB7301E00023C3
:1031A000FB73FB7B18461437BD4680BC704700BFDD
:1031B00080B483B000AF78600B467B807B88DB43B4
:1031C0009AB27B681A8200BF0C37BD4680BC70473C
:1031D00080B483B000AF78600B467B8013463B80A1
:1031E0007A883B8813439AB27B68A3F8482000BFD3
:1031F0000C37BD4680BC704780B483B000AF7860A8
:103200000B467B8013467B707B78002B08D07B6855
:103210009B899AB27B8813439AB27B689A8109E0B2
:103220007B689B899AB27B88DB439BB213409AB23E
:103230007B689A8100BF0C37BD4680BC704700BFD9
:1032400080B483B000AF78600B46FB70FB78002B36
:1032500008D07B689B889BB243F008039AB27B68D6
:103260009A8007E07B689B889BB223F008039AB2A0
:103270007B689A8000BF0C37BD4680BC704700BF9A
:1032800080B483B000AF78607B681B899BB223F069
:1032900007039AB27B681A8100BF0C37BD4680BC19
:1032A000704700BF80B582B000AF78600B467B806E
:1032B0007B881946786800F08BF87B681B899BB285
:1032C00043F007039AB27B681A8100BF0837BD46F6
:1032D00080BD00BF80B584B000AFF86008461146DD
:1032E0001A4603467B810B463B811346FB807B8954
:1032F000602B06D1FB8839890122F86800F0C0F9FB
:1033000005E0FB8839890122F86800F077F97B89AC
:103310001946F86800F05CF8FB681B899BB243F023
:1033200007039AB2FB681A8100BF1037BD4680BD03
:1033300080B586B000AFF860084611461A460346CD
:103340007B810B463B811346FB800023FB82FB887D
:103350003A897989F86800F0ABF8FB681B89FB8231
:10336000FB8A23F00703FB82FB8A43F00703FB82FF
:10337000FB8A23F07003FB82FB8A43F07003FB821D
:10338000FB68FA8A1A8100BF1837BD4680BD00BFAE
:1033900080B584B000AFF860084611461A4603466F
:1033A0007B810B463B811346FB80FB883A897989F8
:1033B000F86800F07DF8FB681B899BB243F48043FA
:1033C0009AB2FB681A8100BF1037BD4680BD00BFAE
:1033D00080B485B000AF78600B467B800023FB8112
:1033E0007B681B89FB81FB8923F07003FB81FA89D1
:1033F0007B881343FB817B68FA891A8100BF1437ED
:10340000BD4680BC704700BF80B483B000AF786019
:103410000B467B807B689B889BB223F070039AB23B
:103420007B689A807B689B889AB27B8813439AB2A8
:103430007B689A8000BF0C37BD4680BC704700BFD8
:1034400080B483B000AF78600B467B807B681B89BB
:103450009BB223F007039AB27B681A817B681B89B1
:103460009AB27B8813439AB27B681A8100BF0C37EB
:10347000BD4680BC704700BF80B483B000AF7860A9
:103480000B467B807B681B899BB223F080039AB23A
:103490007B681A817B681B899AB27B8813439AB236
:1034A0007B681A8100BF0C37BD4680BC704700BFE7
:1034B00080B487B000AFF860084611461A4603464C
:1034C0007B810B463B811346FB800023FB82FB681C
:1034D0001B89FB82FB8ADBB2FB82FB881B029AB250
:1034E0003B8913439AB27B8913439AB2FB8A1343F5
:1034F000FB82FB68FA8A1A8100BF1C37BD4680BC7C
:10350000704700BF80B487B000AFF860084611462E
:103510001A4603467B810B463B811346FB80002302
:10352000FB820023BB8200237B82FB681B89FB821A
:10353000FB681B8BBB82FB681B8C7B82FB8A23F0A6
:103540000703FB82FA8A7B891343FB82BB8A23F43D
:10355000407323F00303BB82BB8A43F4807343F0C0
:103560000103BB827B8A23F022037B82FB881B0141
:103570009AB23B8913439AB27B8A13437B82FB68DE
:10358000FA8A1A81FB68BA8A1A83FB687A8A1A84D3
:1035900000BF1C37BD4680BC704700BF80B483B0FD
:1035A00000AF78600B46FB70FB78002B08D07B687F
:1035B0009B889BB243F080039AB27B689A8007E0B5
:1035C0007B689B889BB223F080039AB27B689A80C9
:1035D00000BF0C37BD4680BC704700BF80B483B0CD
:1035E00000AF78600B467B807B687A88A3F8502018
:1035F00000BF0C37BD4680BC704700BF80B487B0A9
:1036000000AFF860084611461A4603467B810B4618
:103610003B811346FB800023FB820023BB82FB68B7
:103620001B8C9BB223F001039AB2FB681A84FB68DF
:103630001B8BFB82FB681B8CBB82FB8A23F0F30392
:10364000FB82FB881B019AB23B8913439AB2FB8A27
:103650001343FB82BB8A23F00A03BB827A89BB8AAD
:1036600013439BB243F00103BB82FB68FA8A1A83BF
:10367000FB68BA8A1A8400BF1C37BD4680BC7047FD
:1036800080B487B000AFF860084611461A4603467A
:103690007B810B463B811346FB800023FB8200238A
:1036A000BB8200237B82FB681B8C9BB223F0100340
:1036B0009AB2FB681A84FB681B8BFB82FB681B8C2D
:1036C000BB827B891B017B82FB8A23F440731B0531
:1036D0001B0DFB82FB881B039AB2FB8A1343FB8200
:1036E0003B891B029AB2FB8A1343FB82BB8A23F0FD
:1036F000A003BB827A8ABB8A13439BB243F01003B8
:10370000BB82FB68FA8A1A83FB68BA8A1A8400BFF4
:103710001C37BD4680BC704780B487B000AFF860EE
:10372000084611461A4603467B810B463B811346E9
:10373000FB800023FB820023BB8200237B82FB688B
:103740001B8C9BB223F480739AB2FB681A84FB68CB
:103750009B8BFB82FB681B8CBB827B891B027B8261
:10376000FB8A23F0F303FB82FB881B019AB23B899F
:1037700013439AB2FB8A1343FB82BB8A23F4206370
:10378000BB827A8ABB8A13439BB243F48073BB82A9
:10379000FB68FA8A9A83FB68BA8A1A8400BF1C37CE
:1037A000BD4680BC704700BF80B487B000AFF860F2
:1037B000084611461A4603467B810B463B81134659
:1037C000FB800023FB820023BB8200237B82FB68FB
:1037D0001B8C9BB223F480539AB2FB681A84FB685B
:1037E0009B8BFB82FB681B8CBB827B891B037B82D0
:1037F000FB8A23F440731B051B0DFB823B891B02D4
:103800009AB2FB8A1343FB82FB881B039AB2FB8AA2
:103810001343FB82BB8A23F400535B045B0CBB8223
:103820007A8ABB8A13439BB243F48053BB82FB6802
:10383000FA8A9A83FB68BA8A1A8400BF1C37BD468D
:1038400080BC704780B483B000AF0346FB71084969
:1038500097F907305B09FA7902F01F02012000FA9C
:1038600002F241F8232000BF0C37BD4680BC7047F0
:1038700000E100E080B483B000AF03463960FB7123
:1038800097F90730002B0BDA0D49FB7903F00F0392
:10389000043B3A68D2B21201D2B20B441A7609E064
:1038A000084997F907303A68D2B21201D2B20B44F4
:1038B00083F8002300BF0C37BD4680BC704700BFB3
:1038C00000ED00E000E100E080B582B000AF78607C
:1038D0007B68B3F1807F01D3012311E00A4A7B6842
:1038E00023F07F43013B53600F214FF0FF30FFF780
:1038F000C1FF054B00229A60034B07221A60002388
:1039000018460837BD4680BD10E000E080B58AB09B
:1039100000AFFEF777F8CB4B1B68CB4AA2FB032323
:103920009B091846FFF7D0FF01210120FDF788FE13
:1039300001210220FDF784FE01211120FDF708FE80
:1039400001210420FDF704FE01210220FDF700FE05
:103950004FF4A0633B62022387F82430032387F8E7
:103960002530002387F82630022387F8273007F117
:1039700020031946B548FCF797FC4FF400633B62FF
:10398000022387F82430032387F82530002387F8A3
:103990002630022387F8273007F120031946AC4868
:1039A000FCF782FC01220821A848FCF7E7FD012270
:1039B0000B21A748FCF7E2FD01220A21A348FCF7EE
:1039C000DDFD4FF4E0733B62022387F824300323CC
:1039D00087F82530002387F82630022387F8273020
:1039E00007F1200319469B48FCF75EFC03220621E1
:1039F0009848FCF7C3FD032207219648FCF7BEFD5B
:103A0000032208219348FCF7B9FD8E4B1B685B0A23
:103A1000914AA2FB0323DB099BB2013B9AB28F4B75
:103A20001A808F4B4FF4FA625A608C4B1A888C4B79
:103A30001A808B4B00221A81894B00225A808849B8
:103A40008848FEF7E3F9884B60221A80864B0122F2
:103A50005A80854B64229A60834B00229A81824966
:103A60008048FEF773FB08217E48FEF783FE7E49FF
:103A70007C48FEF7E5FB08217A48FEF797FE7A4975
:103A80007848FEF765FC08217648FEF7ADFE012177
:103A90007448FEF7E3FA724B4FF4FA625A606F4BC8
:103AA0001A886F4B1A806E4B00221A816C4B0022D1
:103AB0005A806B496D48FEF7A9F96B4B60221A805A
:103AC000694B01225A80684B64229A60664B00223F
:103AD0009A8165496548FEF739FB08216348FEF77E
:103AE00049FE61496148FEF7ABFB08215F48FEF7DC
:103AF0005DFE5D495D48FEF72BFC08215B48FEF743
:103B000073FE01215948FEF7A9FA01215548FFF734
:103B100061FA01215348FEF7F9FA002200215148C9
:103B2000FFF752F8002204214E48FFF74DF800221B
:103B300008214C48FFF748F801214C48FFF74AFAA2
:103B400001214A48FEF7E2FA002200214748FFF728
:103B50003BF8002204214548FFF736F800220821EF
:103B60004248FFF731F84FF460433B62012387F886
:103B70002430002387F82630032387F825300223DA
:103B800087F8273007F1200319463948FCF78CFBEA
:103B900001210120FDF7DCFC80233B62012387F833
:103BA0002430002387F82630032387F825300223AA
:103BB00087F8273007F1200319462448FCF774FBE7
:103BC00001210220FDF7C4FC03233B62012387F897
:103BD0002430002387F82630032387F8253002237A
:103BE00087F8273007F1200319462148FCF75CFBD2
:103BF00001210420FDF7ACFC0723BB6100233B77C8
:103C00000023BB7703237B770123FB7707F118039E
:103C100019461048FCF748FB01210420FDF798FCE9
:103C20003823BB6100233B770023BB7703237B77DB
:103C30000123FB7707F1180319460648FCF734FB0C
:103C4000012117E010000020D34D62100000024057
:103C5000001002400008024023B24C003000002057
:103C60009427002000000140A82700200004014004
:103C7000000402400820FDF76BFC1C233B6200237C
:103C800087F82430032387F82530002387F827306E
:103C900007F1200319463048FCF706FB01210820F4
:103CA000FDF756FC4FF448633B62002387F824304D
:103CB000032387F82530002387F8273007F12003F6
:103CC00019462548FCF7F0FA01210120FDF740FCD8
:103CD0000C233B6102233B750023BB7503237B75DB
:103CE0000123FB7507F1100319461C48FCF7DCFAA9
:103CF000072202211948FCF741FC0722032117483B
:103D0000FCF73CFC01214FF40030FDF77BFC4FF445
:103D1000E1333B600023BB810C237B8100233B818B
:103D20000023FB800023BB803B4619460C48FCF770
:103D300009FD2620FFF786FD012240F225510848A3
:103D4000FDF73AF801210648FCF712FE00F054FB9B
:103D500000F014FAFAE700BF000C02400000024035
:103D60000044004080B584B000AF15E18F4B1B6864
:103D70008F4A52F82330002B40F0E3808B4B1B68B6
:103D800004338B4A52F823300A2B40F0DA80874BF9
:103D90001B680533864A52F823300D2B40F0D18042
:103DA000844B01221A70814B1B680133804A52F800
:103DB0002330DAB2804B1A707C4B1B6802337C4A8A
:103DC00052F82330DAB27C4B5A70784B1B680333BD
:103DD000774A52F82330DAB2774B9A70734B1B68EC
:103DE0000633724A1360754B1B68063B734A1360B7
:103DF000714B1B78DB09DAB2714B1A706E4B5B7832
:103E0000DB09DAB26F4B1A706D4B1B78012B06D1B0
:103E1000694B1B785B42DAB26B4B1A7003E0664B5E
:103E20001A78694B1A70674B1B78012B06D1624BCD
:103E30005B785B42DAB2654B1A7003E05E4B5A78EE
:103E4000624B1A70614B1B7803F07F0213469B0094
:103E5000134419465E48FEF7E1FB5C4B1B7803F008
:103E60007F0213469B00134419465948FEF7E4FBB2
:103E7000564B1B7803F07F0213469B0013441946F0
:103E80005348FEF7E7FB504B1B7803F07F021346C5
:103E90009B00134419464F48FEF7C0FB4A4B1B7862
:103EA00003F07F0213469B00134419464948FEF76E
:103EB000C3FB454B1B7803F07F0213469B00134462
:103EC00019464448FEF7C6FB434800F0C3F83E4B92
:103ED0001B7818463B1D0A22194600F0F7FF3B1DD0
:103EE000184600F0B7F83D4800F0B4F8344B1B78A2
:103EF00018463B1D0A22194600F0E8FF3B1D1846F4
:103F000000F0A8F8364800F0A5F8304B1B781846AA
:103F10003B1D0A22194600F0D9FF3B1D184600F050
:103F200099F8304800F096F8264B1B7818463B1D50
:103F30000A22194600F0CAFF3B1D184600F08AF815
:103F40000CE01A4B1B680133184A13601B4B1B68AB
:103F5000013B1A4A1360244800F07CF8134B1B689D
:103F6000B3F57A7F02D3114B00221A601F4B1B68F6
:103F7000B3F57A7F02D31D4B00221A600F4B1B68EA
:103F8000391D0A22184600F0A1FF3B1D184600F01B
:103F900061F8174800F05EF8084B1B68052B3FF6E8
:103FA000E5AE00BF1037BD4680BD00BF70000020E9
:103FB000C82700207C000020C027002068000020C7
:103FC0007E0000207D0000205600002057000020C9
:103FD0000000014000040140D04E0008DC4E000803
:103FE000E84E0008F44E0008004F0008640000206E
:103FF000084F000898B500AF40F225511148FCF772
:104000004FFF0346012B1AD140F225510D48FCF712
:10401000A1FF0D4B1C680B48FCF73AFD03461A46FE
:104020000A4B43F824200A4B1B680133084A1360EB
:10403000054B1B680133044A1360FFF793FE00BF72
:1040400098BD00BF0044004064000020C827002045
:104050006800002080B584B000AF78600023FB8149
:1040600013E000BF40210E48FCF7EEFE0346002B94
:10407000F8D0FB897A6813441B789BB2194608482C
:10408000FCF7F4FCFB890133FB81FB897A6813445C
:104090001B78002BE5D100BF1037BD4680BD00BFA7
:1040A0000044004080B582B000AF0346FB8000BFF3
:1040B00040210748FCF7C8FE0346002BF8D0FB88D8
:1040C00019460348FCF7D2FC00BF0837BD4680BD47
:1040D0000044004080B500AF0CE00A4B1B680A4A60
:1040E000D35C9BB21846FFF7DDFF064B1B6801331C
:1040F000044A1360034B1B6842F210729342ECD1E6
:1041000000BF80BD780000208400002080B483B010
:1041100000AF0346FB80064AFB88138000BF044BB8
:104120001B88002BFBD100BF0C37BD4680BC7047FD
:104130003200002080B485B000AF0D4B1B88B3F572
:104140007A7F06D20A4B1B8801339AB2084B1A8039
:1041500008E0084B00221A80074B00221A80044B0B
:1041600000221A8000BF1437BD4680BC704700BFD4
:1041700048000020440000204600002098B500AF11
:10418000944B00221A7004219348FCF757F9034618
:104190005CB208219048FCF751F903465B005BB222
:1041A00023435CB210218C48FCF748F903469B007E
:1041B0005BB223435BB2DAB2864B1A70874B1B7833
:1041C000012B08D1834B1B78DB43DBB203F00703E1
:1041D000DAB2804B1A707F4B1B78062B03D1804BD1
:1041E00001221A7026E07B4B1B78022B03D17C4BFB
:1041F00002221A701EE0774B1B78032B03D1784BF9
:1042000003221A7016E0734B1B78012B03D1744BF9
:1042100004221A700EE06F4B1B78052B03D1704BF4
:1042200005221A7006E06B4B1B78042B02D16C4BF5
:1042300006221A706A4B1A786A4B1B789A4200F071
:10424000C780674B1A78674B1A70674B1B8801331E
:104250009AB2654B1A80624B1B78013B052B00F22A
:10426000B78001A252F823F081420008B942000849
:10427000F1420008294300086143000899430008FF
:10428000002200215948FEF79FFC002204215748D4
:10429000FEF79AFC02215648FCF72AF9802155487E
:1042A000FCF726F9012208215048FEF78DFC012178
:1042B0004F48FCF70FF98BE001214D48FCF718F946
:1042C000002200214948FEF77FFC002204214748D4
:1042D000FEF77AFC02214648FCF70AF90122082180
:1042E0004248FEF771FC80214248FCF7F3F86FE08A
:1042F000002208213D48FEF767FC002200213B48D0
:10430000FEF762FC02213A48FCF7F2F80121384836
:10431000FCF7EEF8012204213448FEF755FC802119
:104320003448FCF7D7F853E080213248FCF7E0F836
:10433000002200212D48FEF747FC002208212B48CF
:10434000FEF742FC01212A48FCF7D2F801220421A1
:104350002648FEF739FC02212548FCF7BBF837E078
:10436000002204212148FEF72FFC002208211F48CB
:10437000FEF72AFC80211F48FCF7BAF801211C48EF
:10438000FCF7B6F8012200211848FEF71DFC0221B7
:104390001748FCF79FF81BE002211548FCF7A8F826
:1043A000002204211148FEF70FFC002208210F48CB
:1043B000FEF70AFC80210F48FCF79AF80122002141
:1043C0000A48FEF701FC01210948FCF783F800BF09
:1043D00000BF98BD7F000020000C02407D0000203F
:1043E000800000202D000020460000200004014035
:1043F000000402400000024098B500AF9E4B00222E
:104400001A7080219D48FCF719F803465CB24FF4FE
:1044100080619A48FCF712F803465B005BB22343C5
:104420005CB24FF400619548FCF708F803469B0026
:104430005BB223435BB2DAB28F4B1A70904B1B789E
:10444000002B08D18C4B1B78DB43DBB203F0070356
:10445000DAB2894B1A70884B1B78062B03D1894B33
:1044600001221A7026E0844B1B78022B03D1854B66
:1044700002221A701EE0804B1B78032B03D1814B64
:1044800003221A7016E07C4B1B78012B03D17D4B65
:1044900004221A700EE0784B1B78052B03D1794B60
:1044A00005221A7006E0744B1B78042B02D1754B61
:1044B00006221A70734B1A78734B1B789A4200F0DD
:1044C000D980704B1A78704B1A70704B1B8801336F
:1044D0009AB26E4B1A806B4B1B78013B052B00F296
:1044E000C98001A252F823F0014500083F450008A9
:1044F0007D450008BB450008F9450008374600081F
:10450000002200216248FEF75FFB00220421604880
:10451000FEF75AFB4FF400415E48FBF7E9FF4FF40A
:1045200000515C48FBF7E4FF012208215848FEF7E0
:104530004BFB4FF480415748FBF7CCFF9AE04FF418
:1045400080415448FBF7D4FF002200215048FEF779
:104550003BFB002204214E48FEF736FB4FF400419E
:104560004C48FBF7C5FF012208214948FEF72CFB08
:104570004FF400514748FBF7ADFF7BE000220821D4
:104580004348FEF721FB002200214148FEF71CFBB7
:104590004FF400413F48FBF7ABFF4FF480413D48EB
:1045A000FBF7A6FF012204213948FEF70DFB4FF46B
:1045B00000513848FBF78EFF5CE04FF4005135485E
:1045C000FBF796FF002200213148FEF7FDFA00229A
:1045D00008212F48FEF7F8FA4FF480412D48FBF7E9
:1045E00087FF012204212A48FEF7EEFA4FF400412A
:1045F0002848FBF76FFF3DE0002204212448FEF726
:10460000E3FA002208212248FEF7DEFA4FF40051B7
:104610002048FBF76DFF4FF480411E48FBF768FF11
:10462000012200211A48FEF7CFFA4FF40041194841
:10463000FBF750FF1EE04FF400411648FBF758FF10
:10464000002204211248FEF7BFFA00220821104878
:10465000FEF7BAFA4FF400510E48FBF749FF01226A
:1046600000210B48FEF7B0FA4FF480410948FBF7F0
:1046700031FF00BF00BF98BD81000020000C024048
:104680007E000020820000202E0000204400002038
:10469000000001400004024080B500AFA24B1B881F
:1046A000002B40F0BE81A14B1B78002B20D1A04BEA
:1046B0001B78062B02D19D4B01221A709C4B1B7854
:1046C0000133DAB29A4B1A709A4B1B78002B05D043
:1046D000984B1B78013BDAB2964B1A70954B1B78BE
:1046E000002B02D1934B06221A70934B1A221A7098
:1046F000924B1A788F4B1B789A420CD08D4B1A78BC
:104700008E4B1A708E4B00221A708E4B1B78013321
:10471000DAB28C4B1A70874B1B78013B052B00F2E9
:10472000808101A252F823F041470008B1470008F8
:104730001F4800088F480008FF4800089F490008EC
:104740007A4B1B78002B0FD001217F48FBF776FEB8
:104750000346002B08D0774B06221A70764B1B7845
:104760009AB2714B1A805CE1754B1B78002B40F0BC
:104770004D81002200217548FEF726FA002208210B
:104780007248FEF721FA012204217048FEF71CFA54
:1047900080216F48FBF7ACFE01216E48FBF7A8FEB5
:1047A00002216C48FBF796FE654B01221A702DE141
:1047B0005E4B1B78002B0ED002216348FBF73EFEB8
:1047C0000346002B07D15C4B1B789AB2564B1A80DC
:1047D000584B01221A705A4B1B78002B40F018815D
:1047E000002204215948FEF7EFF90022082157481A
:1047F000FEF7EAF9012200215448FEF7E5F980218D
:104800005348FBF775FE01215248FBF771FE022168
:104810005048FBF75FFE4A4B01221A70F8E0434B09
:104820001B78002B0FD004214748FBF707FE0346F7
:10483000002B08D03F4B02221A703F4B1B789AB2D4
:10484000394B1A80EDE03E4B1B78002B40F0E280A4
:10485000002204213D48FEF7B7F9002208213B4819
:10486000FEF7B2F9012200213848FEF7ADF9022126
:104870003848FBF73DFE80213548FBF739FE012122
:104880003448FBF727FE2E4B01221A70C2E0274B5B
:104890001B78002B0FD001212B48FBF7CFFD0346DF
:1048A000002B08D1234B03221A70234B1B789AB29A
:1048B0001D4B1A80B5E0224B1B78002B40F0AC80DA
:1048C000002200212148FEF77FF9002204211F4821
:1048D000FEF77AF9012208211C48FEF775F902213A
:1048E0001C48FBF705FE80211948FBF701FE01215A
:1048F0001848FBF7EFFD124B01221A708CE00B4BAE
:104900001B78002B28D002210F48FBF797FD0346A8
:10491000002B21D0074B04221A70074B1B789AB248
:10492000014B1A807DE000BF340000203F000020D2
:104930003D0000203E000020240000204100002017
:104940004000002042000020000802400004014016
:104950000000024000040240334B1B78002B5DD165
:10496000002200213148FEF72FF9002204212F48B0
:10497000FEF72AF9012208212C48FEF725F9022129
:104980002B48FBF7B5FD01212948FBF7B1FD80213C
:104990002848FBF79FFD244B01221A703EE0264B6E
:1049A0001B78002B0FD004212448FBF747FD03465A
:1049B000002B08D1224B05221A70224B1B789AB289
:1049C000214B1A802DE0184B1B78002B28D1002298
:1049D00000211648FEF7F8F8002208211348FEF7D8
:1049E000F3F8012204211148FEF7EEF802211048E5
:1049F000FBF77EFD01210E48FBF77AFD80210D4873
:104A0000FBF768FD084B01221A7009E000BF08E0BF
:104A100000BF06E000BF04E000BF02E000BF00E00E
:104A200000BF00BF80BD00BF400000200004014067
:104A300000040240000002403F0000200008024045
:104A40003E000020240000203400002080B500AF8C
:104A5000A84B1B88002B40F0D081A74B1B78002B64
:104A600020D1A64B1B78062B02D1A34B01221A7032
:104A7000A24B1B780133DAB2A04B1A70A04B1B7803
:104A8000002B05D09E4B1B78013BDAB29C4B1A7071
:104A90009B4B1B78002B02D1994B06221A70994B25
:104AA0001A221A70984B1A78954B1B789A420CD0A0
:104AB000934B1A78944B1A70944B00221A70944BB3
:104AC0001B780133DAB2924B1A708D4B1B78013B85
:104AD000052B00F2928101A252F823F0F54A00085A
:104AE0006B4B0008DF4B0008554C0008CB4C00080E
:104AF000714D0008804B1B78002B0FD00821854892
:104B0000FBF79CFC0346002B08D07D4B06221A7055
:104B1000814B1B789AB2774B1A806EE17B4B1B78E6
:104B2000002B40F05F81002200217C48FEF74CF80A
:104B3000002208217948FEF747F80122042177482E
:104B4000FEF742F84FF400517548FBF7D1FC4FF4E3
:104B500080417348FBF7CCFC4FF400417048FBF7F1
:104B6000B9FC6A4B01221A703CE1634B1B78002BA5
:104B70000ED010216748FBF761FC0346002B07D1DC
:104B8000654B1B789AB25B4B1A805D4B01221A7001
:104B90005E4B1B78002B40F02781002204215F48E8
:104BA000FEF712F8002208215C48FEF70DF80122FA
:104BB00000215A48FEF708F84FF400515848FBF717
:104BC00097FC4FF480415648FBF792FC4FF40041AC
:104BD0005348FBF77FFC4D4B01221A7004E1464B12
:104BE0001B78002B0FD020214A48FBF727FC0346F7
:104BF000002B08D0424B02221A70474B1B789AB206
:104C00003C4B1A80F9E0414B1B78002B40F0EE80C2
:104C1000002204214148FDF7D7FF002208213F4828
:104C2000FDF7D2FF012200213C48FDF7CDFF4FF4F4
:104C300000413B48FBF75CFC4FF400513848FBF760
:104C400057FC4FF480413648FBF744FC2F4B0122C0
:104C50001A70CBE0284B1B78002B0FD008212D4871
:104C6000FBF7ECFB0346002B08D1254B03221A70FF
:104C7000294B1B789AB21F4B1A80BEE0234B1B783E
:104C8000002B40F0B580002200212448FDF79CFF56
:104C9000002204212148FDF797FF012208211F4827
:104CA000FDF792FF4FF400411D48FBF721FC4FF444
:104CB00000511B48FBF71CFC4FF480411848FBF7E0
:104CC00009FC124B01221A7092E00B4B1B78002B4F
:104CD00028D010210F48FBF7B1FB0346002B21D051
:104CE000074B04221A700C4B1B789AB2014B1A80A6
:104CF00083E000BF360000204C0000204A00002066
:104D00004B000020240000204E0000204D00002019
:104D10004F00002000080240280000200000014051
:104D200000040240364B1B78002B63D10022002187
:104D30003448FDF749FF002204213248FDF744FFC3
:104D4000012208212F48FDF73FFF4FF400412E4874
:104D5000FBF7CEFB4FF480412B48FBF7C9FB4FF428
:104D600000512948FBF7B6FB254B01221A7041E0A0
:104D7000264B1B78002B0FD020212548FBF75EFB2C
:104D80000346002B08D1234B05221A70224B1B78B7
:104D90009AB2224B1A8030E0194B1B78002B2BD192
:104DA000002200211748FDF70FFF002208211548B7
:104DB000FDF70AFF012204211248FDF705FF4FF419
:104DC00000411148FBF794FB4FF480410E48FBF77C
:104DD0008FFB4FF400510C48FBF77CFB084B012282
:104DE0001A7009E000BF08E000BF06E000BF04E061
:104DF00000BF02E000BF00E000BF00BF80BD00BFF9
:104E00004D00002000000140000402404C00002042
:104E1000000802404B00002028000020360000203F
:104E200080B500AF002200210748FDF7CDFE00222B
:104E300004210548FDF7C8FE002208210248FDF7BD
:104E4000C3FE00BF80BD00BF00000140F0B5DFF829
:104E500078E0164604460F46BEE80F008BB06D465C
:104E60000FC5BEE80F000FC59EE80300B31E45F84E
:104E7000040B222B297022D87D1E2846002200E038
:104E80001A46B4FBF6F10AAB06FB114423440C4668
:104E900013F8283C00F8013F531C0029F0D1F954C5
:104EA000BB184AB1197815F8010F29700134111B8C
:104EB0008C4203F80109F5DB38460BB0F0BD002049
:104EC00038700BB0F0BD00BF144F0008FFF7BEBF35
:104ED000204C2073706565643A200000204C2064EB
:104EE00069723A20000000002052207370656564EA
:104EF0003A2000002052206469723A20000000002D
:104F0000207374203000000020656E6420200D0A9C
:104F100000000000303132333435363738396162C1
:104F2000636465666768696A6B6C6D6E6F707172D9
:0C4F3000737475767778797A00000000C1
:104F3C000000000001020304010203040607080933
:104F4C00007A030A000000000000000001020304C4
:104F5C000607080913002A00130101646464640045
:0400000508000000EF
:00000001FF
